{
  "_format": "hh-sol-artifact-1",
  "contractName": "Haiku",
  "sourceName": "contracts/Haiku.sol",
  "abi": [
    {
      "inputs": [
        {
          "internalType": "uint256",
          "name": "_maxHaikus",
          "type": "uint256"
        }
      ],
      "stateMutability": "nonpayable",
      "type": "constructor"
    },
    {
      "anonymous": false,
      "inputs": [
        {
          "indexed": true,
          "internalType": "address",
          "name": "owner",
          "type": "address"
        },
        {
          "indexed": true,
          "internalType": "address",
          "name": "approved",
          "type": "address"
        },
        {
          "indexed": true,
          "internalType": "uint256",
          "name": "tokenId",
          "type": "uint256"
        }
      ],
      "name": "Approval",
      "type": "event"
    },
    {
      "anonymous": false,
      "inputs": [
        {
          "indexed": true,
          "internalType": "address",
          "name": "owner",
          "type": "address"
        },
        {
          "indexed": true,
          "internalType": "address",
          "name": "operator",
          "type": "address"
        },
        {
          "indexed": false,
          "internalType": "bool",
          "name": "approved",
          "type": "bool"
        }
      ],
      "name": "ApprovalForAll",
      "type": "event"
    },
    {
      "anonymous": false,
      "inputs": [
        {
          "indexed": true,
          "internalType": "address",
          "name": "owner",
          "type": "address"
        },
        {
          "indexed": false,
          "internalType": "uint256",
          "name": "timestamp",
          "type": "uint256"
        },
        {
          "indexed": false,
          "internalType": "uint256",
          "name": "tokenId",
          "type": "uint256"
        }
      ],
      "name": "HaikuUpdated",
      "type": "event"
    },
    {
      "anonymous": false,
      "inputs": [
        {
          "indexed": true,
          "internalType": "address",
          "name": "to",
          "type": "address"
        },
        {
          "indexed": false,
          "internalType": "uint256",
          "name": "timestamp",
          "type": "uint256"
        },
        {
          "indexed": false,
          "internalType": "uint256",
          "name": "tokenId",
          "type": "uint256"
        }
      ],
      "name": "NFTMinted",
      "type": "event"
    },
    {
      "anonymous": false,
      "inputs": [
        {
          "indexed": true,
          "internalType": "address",
          "name": "previousOwner",
          "type": "address"
        },
        {
          "indexed": true,
          "internalType": "address",
          "name": "newOwner",
          "type": "address"
        }
      ],
      "name": "OwnershipTransferred",
      "type": "event"
    },
    {
      "anonymous": false,
      "inputs": [
        {
          "indexed": true,
          "internalType": "address",
          "name": "from",
          "type": "address"
        },
        {
          "indexed": true,
          "internalType": "address",
          "name": "to",
          "type": "address"
        },
        {
          "indexed": true,
          "internalType": "uint256",
          "name": "tokenId",
          "type": "uint256"
        }
      ],
      "name": "Transfer",
      "type": "event"
    },
    {
      "inputs": [],
      "name": "MAX_PER_WALLET",
      "outputs": [
        {
          "internalType": "uint256",
          "name": "",
          "type": "uint256"
        }
      ],
      "stateMutability": "view",
      "type": "function"
    },
    {
      "inputs": [],
      "name": "PUBLIC_SALE_PRICE",
      "outputs": [
        {
          "internalType": "uint256",
          "name": "",
          "type": "uint256"
        }
      ],
      "stateMutability": "view",
      "type": "function"
    },
    {
      "inputs": [
        {
          "internalType": "address",
          "name": "to",
          "type": "address"
        },
        {
          "internalType": "uint256",
          "name": "tokenId",
          "type": "uint256"
        }
      ],
      "name": "approve",
      "outputs": [],
      "stateMutability": "nonpayable",
      "type": "function"
    },
    {
      "inputs": [
        {
          "internalType": "address",
          "name": "owner",
          "type": "address"
        }
      ],
      "name": "balanceOf",
      "outputs": [
        {
          "internalType": "uint256",
          "name": "",
          "type": "uint256"
        }
      ],
      "stateMutability": "view",
      "type": "function"
    },
    {
      "inputs": [
        {
          "internalType": "uint256",
          "name": "tokenId",
          "type": "uint256"
        }
      ],
      "name": "getApproved",
      "outputs": [
        {
          "internalType": "address",
          "name": "",
          "type": "address"
        }
      ],
      "stateMutability": "view",
      "type": "function"
    },
    {
      "inputs": [
        {
          "internalType": "address",
          "name": "owner",
          "type": "address"
        },
        {
          "internalType": "address",
          "name": "operator",
          "type": "address"
        }
      ],
      "name": "isApprovedForAll",
      "outputs": [
        {
          "internalType": "bool",
          "name": "",
          "type": "bool"
        }
      ],
      "stateMutability": "view",
      "type": "function"
    },
    {
      "inputs": [],
      "name": "isPublicSaleActive",
      "outputs": [
        {
          "internalType": "bool",
          "name": "",
          "type": "bool"
        }
      ],
      "stateMutability": "view",
      "type": "function"
    },
    {
      "inputs": [],
      "name": "maxHaikus",
      "outputs": [
        {
          "internalType": "uint256",
          "name": "",
          "type": "uint256"
        }
      ],
      "stateMutability": "view",
      "type": "function"
    },
    {
      "inputs": [],
      "name": "mint",
      "outputs": [],
      "stateMutability": "nonpayable",
      "type": "function"
    },
    {
      "inputs": [],
      "name": "name",
      "outputs": [
        {
          "internalType": "string",
          "name": "",
          "type": "string"
        }
      ],
      "stateMutability": "view",
      "type": "function"
    },
    {
      "inputs": [],
      "name": "owner",
      "outputs": [
        {
          "internalType": "address",
          "name": "",
          "type": "address"
        }
      ],
      "stateMutability": "view",
      "type": "function"
    },
    {
      "inputs": [
        {
          "internalType": "uint256",
          "name": "tokenId",
          "type": "uint256"
        }
      ],
      "name": "ownerOf",
      "outputs": [
        {
          "internalType": "address",
          "name": "",
          "type": "address"
        }
      ],
      "stateMutability": "view",
      "type": "function"
    },
    {
      "inputs": [],
      "name": "renounceOwnership",
      "outputs": [],
      "stateMutability": "nonpayable",
      "type": "function"
    },
    {
      "inputs": [
        {
          "internalType": "address",
          "name": "from",
          "type": "address"
        },
        {
          "internalType": "address",
          "name": "to",
          "type": "address"
        },
        {
          "internalType": "uint256",
          "name": "tokenId",
          "type": "uint256"
        }
      ],
      "name": "safeTransferFrom",
      "outputs": [],
      "stateMutability": "nonpayable",
      "type": "function"
    },
    {
      "inputs": [
        {
          "internalType": "address",
          "name": "from",
          "type": "address"
        },
        {
          "internalType": "address",
          "name": "to",
          "type": "address"
        },
        {
          "internalType": "uint256",
          "name": "tokenId",
          "type": "uint256"
        },
        {
          "internalType": "bytes",
          "name": "_data",
          "type": "bytes"
        }
      ],
      "name": "safeTransferFrom",
      "outputs": [],
      "stateMutability": "nonpayable",
      "type": "function"
    },
    {
      "inputs": [
        {
          "internalType": "address",
          "name": "operator",
          "type": "address"
        },
        {
          "internalType": "bool",
          "name": "approved",
          "type": "bool"
        }
      ],
      "name": "setApprovalForAll",
      "outputs": [],
      "stateMutability": "nonpayable",
      "type": "function"
    },
    {
      "inputs": [
        {
          "internalType": "bool",
          "name": "_isPublicSaleActive",
          "type": "bool"
        }
      ],
      "name": "setIsPublicSaleActive",
      "outputs": [],
      "stateMutability": "nonpayable",
      "type": "function"
    },
    {
      "inputs": [
        {
          "internalType": "bytes4",
          "name": "interfaceId",
          "type": "bytes4"
        }
      ],
      "name": "supportsInterface",
      "outputs": [
        {
          "internalType": "bool",
          "name": "",
          "type": "bool"
        }
      ],
      "stateMutability": "view",
      "type": "function"
    },
    {
      "inputs": [],
      "name": "symbol",
      "outputs": [
        {
          "internalType": "string",
          "name": "",
          "type": "string"
        }
      ],
      "stateMutability": "view",
      "type": "function"
    },
    {
      "inputs": [
        {
          "internalType": "uint256",
          "name": "index",
          "type": "uint256"
        }
      ],
      "name": "tokenByIndex",
      "outputs": [
        {
          "internalType": "uint256",
          "name": "",
          "type": "uint256"
        }
      ],
      "stateMutability": "view",
      "type": "function"
    },
    {
      "inputs": [
        {
          "internalType": "address",
          "name": "owner",
          "type": "address"
        },
        {
          "internalType": "uint256",
          "name": "index",
          "type": "uint256"
        }
      ],
      "name": "tokenOfOwnerByIndex",
      "outputs": [
        {
          "internalType": "uint256",
          "name": "",
          "type": "uint256"
        }
      ],
      "stateMutability": "view",
      "type": "function"
    },
    {
      "inputs": [
        {
          "internalType": "uint256",
          "name": "tokenId",
          "type": "uint256"
        }
      ],
      "name": "tokenURI",
      "outputs": [
        {
          "internalType": "string",
          "name": "",
          "type": "string"
        }
      ],
      "stateMutability": "view",
      "type": "function"
    },
    {
      "inputs": [],
      "name": "totalSupply",
      "outputs": [
        {
          "internalType": "uint256",
          "name": "",
          "type": "uint256"
        }
      ],
      "stateMutability": "view",
      "type": "function"
    },
    {
      "inputs": [
        {
          "internalType": "address",
          "name": "from",
          "type": "address"
        },
        {
          "internalType": "address",
          "name": "to",
          "type": "address"
        },
        {
          "internalType": "uint256",
          "name": "tokenId",
          "type": "uint256"
        }
      ],
      "name": "transferFrom",
      "outputs": [],
      "stateMutability": "nonpayable",
      "type": "function"
    },
    {
      "inputs": [
        {
          "internalType": "address",
          "name": "newOwner",
          "type": "address"
        }
      ],
      "name": "transferOwnership",
      "outputs": [],
      "stateMutability": "nonpayable",
      "type": "function"
    },
    {
      "inputs": [
        {
          "internalType": "uint256",
          "name": "tokenId",
          "type": "uint256"
        },
        {
          "internalType": "string",
          "name": "bgColor",
          "type": "string"
        },
        {
          "internalType": "string",
          "name": "fontColor",
          "type": "string"
        }
      ],
      "name": "updatePoem",
      "outputs": [],
      "stateMutability": "nonpayable",
      "type": "function"
    }
  ],
  "bytecode": "0x60806040523480156200001157600080fd5b5060405162004e5738038062004e578339818101604052810190620000379190620002b5565b6040518060400160405280600581526020017f4861696b750000000000000000000000000000000000000000000000000000008152506040518060400160405280600581526020017f4841494b550000000000000000000000000000000000000000000000000000008152508160009080519060200190620000bb929190620001ee565b508060019080519060200190620000d4929190620001ee565b505050620000f7620000eb6200012060201b60201c565b6200012860201b60201c565b80600d819055506001600e60006101000a81548160ff021916908315150217905550506200036a565b600033905090565b6000600b60009054906101000a900473ffffffffffffffffffffffffffffffffffffffff16905081600b60006101000a81548173ffffffffffffffffffffffffffffffffffffffff021916908373ffffffffffffffffffffffffffffffffffffffff1602179055508173ffffffffffffffffffffffffffffffffffffffff168173ffffffffffffffffffffffffffffffffffffffff167f8be0079c531659141344cd1fd0a4f28419497f9722a3daafe3b4186f6b6457e060405160405180910390a35050565b828054620001fc90620002eb565b90600052602060002090601f0160209004810192826200022057600085556200026c565b82601f106200023b57805160ff19168380011785556200026c565b828001600101855582156200026c579182015b828111156200026b5782518255916020019190600101906200024e565b5b5090506200027b91906200027f565b5090565b5b808211156200029a57600081600090555060010162000280565b5090565b600081519050620002af8162000350565b92915050565b600060208284031215620002c857600080fd5b6000620002d8848285016200029e565b91505092915050565b6000819050919050565b600060028204905060018216806200030457607f821691505b602082108114156200031b576200031a62000321565b5b50919050565b7f4e487b7100000000000000000000000000000000000000000000000000000000600052602260045260246000fd5b6200035b81620002e1565b81146200036757600080fd5b50565b614add806200037a6000396000f3fe608060405234801561001057600080fd5b506004361061018e5760003560e01c806342842e0e116100de57806395d89b4111610097578063c87b56dd11610071578063c87b56dd1461045d578063e985e9c51461048d578063f2fde38b146104bd578063ffcc0601146104d95761018e565b806395d89b4114610407578063a22cb46514610425578063b88d4fde146104415761018e565b806342842e0e146103335780634f6ccce71461034f5780636352211e1461037f57806370a08231146103af578063715018a6146103df5780638da5cb5b146103e95761018e565b80631249c58b1161014b57806323b872dd1161012557806323b872dd146102af57806328cad13d146102cb5780632f745c59146102e757806331dca4e2146103175761018e565b80631249c58b1461026957806318160ddd146102735780631e84c413146102915761018e565b806301ffc9a71461019357806306fdde03146101c357806307e89ec0146101e1578063081812fc146101ff578063095ea7b31461022f5780630f2cdd6c1461024b575b600080fd5b6101ad60048036038101906101a89190612ffd565b6104f7565b6040516101ba91906137e5565b60405180910390f35b6101cb610509565b6040516101d89190613800565b60405180910390f35b6101e961059b565b6040516101f69190613b02565b60405180910390f35b6102196004803603810190610214919061304f565b6105a6565b604051610226919061377e565b60405180910390f35b61024960048036038101906102449190612f98565b61062b565b005b610253610743565b6040516102609190613b02565b60405180910390f35b610271610748565b005b61027b6108b3565b6040516102889190613b02565b60405180910390f35b6102996108c0565b6040516102a691906137e5565b60405180910390f35b6102c960048036038101906102c49190612e92565b6108d3565b005b6102e560048036038101906102e09190612fd4565b610933565b005b61030160048036038101906102fc9190612f98565b6109cc565b60405161030e9190613b02565b60405180910390f35b610331600480360381019061032c9190613078565b610a71565b005b61034d60048036038101906103489190612e92565b610e4c565b005b6103696004803603810190610364919061304f565b610e6c565b6040516103769190613b02565b60405180910390f35b6103996004803603810190610394919061304f565b610f03565b6040516103a6919061377e565b60405180910390f35b6103c960048036038101906103c49190612e2d565b610fb5565b6040516103d69190613b02565b60405180910390f35b6103e761106d565b005b6103f16110f5565b6040516103fe919061377e565b60405180910390f35b61040f61111f565b60405161041c9190613800565b60405180910390f35b61043f600480360381019061043a9190612f5c565b6111b1565b005b61045b60048036038101906104569190612ee1565b6111c7565b005b6104776004803603810190610472919061304f565b611229565b6040516104849190613800565b60405180910390f35b6104a760048036038101906104a29190612e56565b61123b565b6040516104b491906137e5565b60405180910390f35b6104d760048036038101906104d29190612e2d565b6112cf565b005b6104e16113c7565b6040516104ee9190613b02565b60405180910390f35b6000610502826113cd565b9050919050565b60606000805461051890613db5565b80601f016020809104026020016040519081016040528092919081815260200182805461054490613db5565b80156105915780601f1061056657610100808354040283529160200191610591565b820191906000526020600020905b81548152906001019060200180831161057457829003601f168201915b5050505050905090565b66b1a2bc2ec5000081565b60006105b182611447565b6105f0576040517f08c379a00000000000000000000000000000000000000000000000000000000081526004016105e7906139e2565b60405180910390fd5b6004600083815260200190815260200160002060009054906101000a900473ffffffffffffffffffffffffffffffffffffffff169050919050565b600061063682610f03565b90508073ffffffffffffffffffffffffffffffffffffffff168373ffffffffffffffffffffffffffffffffffffffff1614156106a7576040517f08c379a000000000000000000000000000000000000000000000000000000000815260040161069e90613a62565b60405180910390fd5b8073ffffffffffffffffffffffffffffffffffffffff166106c66114b3565b73ffffffffffffffffffffffffffffffffffffffff1614806106f557506106f4816106ef6114b3565b61123b565b5b610734576040517f08c379a000000000000000000000000000000000000000000000000000000000815260040161072b90613902565b60405180910390fd5b61073e83836114bb565b505050565b600281565b6000610754600c611574565b905060006040518060e0016040528060a881526020016149c060a8913990506000604051806101600160405280610131815260200161488f6101319139826040516020016107a39291906136b7565b604051602081830303815290604052905060006107f06107c285611582565b6107cb846115b3565b6040516020016107dc929190613664565b6040516020818303038152906040526115b3565b90506000816040516020016108059190613713565b60405160208183030381529060405290506108203386611771565b61082a858261178f565b83600f60008781526020019081526020016000209080519060200190610851929190612c6f565b5061085c600c611803565b3373ffffffffffffffffffffffffffffffffffffffff167f3a8a89b59a31c39a36febecb987e0657ab7b7c73b60ebacb44dcb9886c2d5c8a42876040516108a4929190613b1d565b60405180910390a25050505050565b6000600880549050905090565b600e60009054906101000a900460ff1681565b6108e46108de6114b3565b82611819565b610923576040517f08c379a000000000000000000000000000000000000000000000000000000000815260040161091a90613a82565b60405180910390fd5b61092e8383836118f7565b505050565b61093b6114b3565b73ffffffffffffffffffffffffffffffffffffffff166109596110f5565b73ffffffffffffffffffffffffffffffffffffffff16146109af576040517f08c379a00000000000000000000000000000000000000000000000000000000081526004016109a690613a02565b60405180910390fd5b80600e60006101000a81548160ff02191690831515021790555050565b60006109d783610fb5565b8210610a18576040517f08c379a0000000000000000000000000000000000000000000000000000000008152600401610a0f90613822565b60405180910390fd5b600660008473ffffffffffffffffffffffffffffffffffffffff1673ffffffffffffffffffffffffffffffffffffffff168152602001908152602001600020600083815260200190815260200160002054905092915050565b84610a7c3382611819565b610abb576040517f08c379a0000000000000000000000000000000000000000000000000000000008152600401610ab290613ac2565b60405180910390fd5b84848080601f016020809104026020016040519081016040528093929190818152602001838380828437600081840152601f19601f8201169050808301925050505050505060088151108015610b12575060038151115b610b51576040517f08c379a0000000000000000000000000000000000000000000000000000000008152600401610b4890613982565b60405180910390fd5b6000610b5c82611b53565b90506001151581151514610ba5576040517f08c379a0000000000000000000000000000000000000000000000000000000008152600401610b9c90613ae2565b60405180910390fd5b84848080601f016020809104026020016040519081016040528093929190818152602001838380828437600081840152601f19601f8201169050808301925050505050505060088151108015610bfc575060038151115b610c3b576040517f08c379a0000000000000000000000000000000000000000000000000000000008152600401610c3290613982565b60405180910390fd5b6000610c4682611b53565b90506001151581151514610c8f576040517f08c379a0000000000000000000000000000000000000000000000000000000008152600401610c8690613ae2565b60405180910390fd5b6060600088888c8c604051602001610caa9493929190613735565b60405160208183030381529060405290506000600f60008e81526020019081526020016000208054610cdb90613db5565b80601f0160208091040260200160405190810160405280929190818152602001828054610d0790613db5565b8015610d545780601f10610d2957610100808354040283529160200191610d54565b820191906000526020600020905b815481529060010190602001808311610d3757829003601f168201915b5050505050905060008282604051602001610d709291906136b7565b6040516020818303038152906040529050610dbb610d8d8f611582565b610d96836115b3565b604051602001610da7929190613664565b6040516020818303038152906040526115b3565b9350505050600081604051602001610dd39190613713565b6040516020818303038152906040529050610dee8c8261178f565b3373ffffffffffffffffffffffffffffffffffffffff167f0c7c98b8a3af0647c44b0ab7b725e277064ae6ac7cd6044e9cf83ff16b609573428e604051610e36929190613b1d565b60405180910390a2505050505050505050505050565b610e67838383604051806020016040528060008152506111c7565b505050565b6000610e766108b3565b8210610eb7576040517f08c379a0000000000000000000000000000000000000000000000000000000008152600401610eae90613aa2565b60405180910390fd5b60088281548110610ef1577f4e487b7100000000000000000000000000000000000000000000000000000000600052603260045260246000fd5b90600052602060002001549050919050565b6000806002600084815260200190815260200160002060009054906101000a900473ffffffffffffffffffffffffffffffffffffffff169050600073ffffffffffffffffffffffffffffffffffffffff168173ffffffffffffffffffffffffffffffffffffffff161415610fac576040517f08c379a0000000000000000000000000000000000000000000000000000000008152600401610fa390613942565b60405180910390fd5b80915050919050565b60008073ffffffffffffffffffffffffffffffffffffffff168273ffffffffffffffffffffffffffffffffffffffff161415611026576040517f08c379a000000000000000000000000000000000000000000000000000000000815260040161101d90613922565b60405180910390fd5b600360008373ffffffffffffffffffffffffffffffffffffffff1673ffffffffffffffffffffffffffffffffffffffff168152602001908152602001600020549050919050565b6110756114b3565b73ffffffffffffffffffffffffffffffffffffffff166110936110f5565b73ffffffffffffffffffffffffffffffffffffffff16146110e9576040517f08c379a00000000000000000000000000000000000000000000000000000000081526004016110e090613a02565b60405180910390fd5b6110f36000611c63565b565b6000600b60009054906101000a900473ffffffffffffffffffffffffffffffffffffffff16905090565b60606001805461112e90613db5565b80601f016020809104026020016040519081016040528092919081815260200182805461115a90613db5565b80156111a75780601f1061117c576101008083540402835291602001916111a7565b820191906000526020600020905b81548152906001019060200180831161118a57829003601f168201915b5050505050905090565b6111c36111bc6114b3565b8383611d29565b5050565b6111d86111d26114b3565b83611819565b611217576040517f08c379a000000000000000000000000000000000000000000000000000000000815260040161120e90613a82565b60405180910390fd5b61122384848484611e96565b50505050565b606061123482611ef2565b9050919050565b6000600560008473ffffffffffffffffffffffffffffffffffffffff1673ffffffffffffffffffffffffffffffffffffffff16815260200190815260200160002060008373ffffffffffffffffffffffffffffffffffffffff1673ffffffffffffffffffffffffffffffffffffffff16815260200190815260200160002060009054906101000a900460ff16905092915050565b6112d76114b3565b73ffffffffffffffffffffffffffffffffffffffff166112f56110f5565b73ffffffffffffffffffffffffffffffffffffffff161461134b576040517f08c379a000000000000000000000000000000000000000000000000000000000815260040161134290613a02565b60405180910390fd5b600073ffffffffffffffffffffffffffffffffffffffff168173ffffffffffffffffffffffffffffffffffffffff1614156113bb576040517f08c379a00000000000000000000000000000000000000000000000000000000081526004016113b290613862565b60405180910390fd5b6113c481611c63565b50565b600d5481565b60007f780e9d63000000000000000000000000000000000000000000000000000000007bffffffffffffffffffffffffffffffffffffffffffffffffffffffff1916827bffffffffffffffffffffffffffffffffffffffffffffffffffffffff19161480611440575061143f82612044565b5b9050919050565b60008073ffffffffffffffffffffffffffffffffffffffff166002600084815260200190815260200160002060009054906101000a900473ffffffffffffffffffffffffffffffffffffffff1673ffffffffffffffffffffffffffffffffffffffff1614159050919050565b600033905090565b816004600083815260200190815260200160002060006101000a81548173ffffffffffffffffffffffffffffffffffffffff021916908373ffffffffffffffffffffffffffffffffffffffff160217905550808273ffffffffffffffffffffffffffffffffffffffff1661152e83610f03565b73ffffffffffffffffffffffffffffffffffffffff167f8c5be1e5ebec7d5bd14f71427d1e84f3dd0314c0f7b2291e5b200ac8c7c3b92560405160405180910390a45050565b600081600001549050919050565b606061158d82612126565b60405160200161159d91906136e6565b6040516020818303038152906040529050919050565b606060008251905060008114156115dc576040518060200160405280600081525091505061176c565b600060036002836115ed9190613bea565b6115f79190613c40565b60046116039190613c71565b905060006020826116149190613bea565b67ffffffffffffffff811115611653577f4e487b7100000000000000000000000000000000000000000000000000000000600052604160045260246000fd5b6040519080825280601f01601f1916602001820160405280156116855781602001600182028036833780820191505090505b5090506000604051806060016040528060408152602001614a68604091399050600181016020830160005b868110156117295760038101905062ffffff818a015116603f8160121c168401518060081b905060ff603f83600c1c1686015116810190508060081b905060ff603f8360061c1686015116810190508060081b905060ff603f831686015116810190508060e01b905080845260048401935050506116b0565b50600386066001811461174357600281146117535761175e565b613d3d60f01b600283035261175e565b603d60f81b60018303525b508484525050819450505050505b919050565b61178b8282604051806020016040528060008152506122d3565b5050565b61179882611447565b6117d7576040517f08c379a00000000000000000000000000000000000000000000000000000000081526004016117ce90613962565b60405180910390fd5b80600a600084815260200190815260200160002090805190602001906117fe929190612c6f565b505050565b6001816000016000828254019250508190555050565b600061182482611447565b611863576040517f08c379a000000000000000000000000000000000000000000000000000000000815260040161185a906138e2565b60405180910390fd5b600061186e83610f03565b90508073ffffffffffffffffffffffffffffffffffffffff168473ffffffffffffffffffffffffffffffffffffffff1614806118dd57508373ffffffffffffffffffffffffffffffffffffffff166118c5846105a6565b73ffffffffffffffffffffffffffffffffffffffff16145b806118ee57506118ed818561123b565b5b91505092915050565b8273ffffffffffffffffffffffffffffffffffffffff1661191782610f03565b73ffffffffffffffffffffffffffffffffffffffff161461196d576040517f08c379a000000000000000000000000000000000000000000000000000000000815260040161196490613a22565b60405180910390fd5b600073ffffffffffffffffffffffffffffffffffffffff168273ffffffffffffffffffffffffffffffffffffffff1614156119dd576040517f08c379a00000000000000000000000000000000000000000000000000000000081526004016119d4906138a2565b60405180910390fd5b6119e883838361232e565b6119f36000826114bb565b6001600360008573ffffffffffffffffffffffffffffffffffffffff1673ffffffffffffffffffffffffffffffffffffffff1681526020019081526020016000206000828254611a439190613ccb565b925050819055506001600360008473ffffffffffffffffffffffffffffffffffffffff1673ffffffffffffffffffffffffffffffffffffffff1681526020019081526020016000206000828254611a9a9190613bea565b92505081905550816002600083815260200190815260200160002060006101000a81548173ffffffffffffffffffffffffffffffffffffffff021916908373ffffffffffffffffffffffffffffffffffffffff160217905550808273ffffffffffffffffffffffffffffffffffffffff168473ffffffffffffffffffffffffffffffffffffffff167fddf252ad1be2c89b69c2b068fc378daa952ba7f163c4a11628f55a4df523b3ef60405160405180910390a4505050565b6000805b8251811015611c58576000838281518110611b9b577f4e487b7100000000000000000000000000000000000000000000000000000000600052603260045260246000fd5b602001015160f81c60f81b60f81c9050600082148015611bbf575060238160ff1614155b15611bcf57600092505050611c5e565b60018210611c4457600060308260ff1610158015611bf1575060398260ff1611155b80611c10575060418260ff1610158015611c0f5750605a8260ff1611155b5b80611c2f575060618260ff1610158015611c2e5750607a8260ff1611155b5b905080611c425760009350505050611c5e565b505b508080611c5090613e18565b915050611b57565b50600190505b919050565b6000600b60009054906101000a900473ffffffffffffffffffffffffffffffffffffffff16905081600b60006101000a81548173ffffffffffffffffffffffffffffffffffffffff021916908373ffffffffffffffffffffffffffffffffffffffff1602179055508173ffffffffffffffffffffffffffffffffffffffff168173ffffffffffffffffffffffffffffffffffffffff167f8be0079c531659141344cd1fd0a4f28419497f9722a3daafe3b4186f6b6457e060405160405180910390a35050565b8173ffffffffffffffffffffffffffffffffffffffff168373ffffffffffffffffffffffffffffffffffffffff161415611d98576040517f08c379a0000000000000000000000000000000000000000000000000000000008152600401611d8f906138c2565b60405180910390fd5b80600560008573ffffffffffffffffffffffffffffffffffffffff1673ffffffffffffffffffffffffffffffffffffffff16815260200190815260200160002060008473ffffffffffffffffffffffffffffffffffffffff1673ffffffffffffffffffffffffffffffffffffffff16815260200190815260200160002060006101000a81548160ff0219169083151502179055508173ffffffffffffffffffffffffffffffffffffffff168373ffffffffffffffffffffffffffffffffffffffff167f17307eab39ab6107e8899845ad3d59bd9653f200f220920489ca2b5937696c3183604051611e8991906137e5565b60405180910390a3505050565b611ea18484846118f7565b611ead8484848461233e565b611eec576040517f08c379a0000000000000000000000000000000000000000000000000000000008152600401611ee390613842565b60405180910390fd5b50505050565b6060611efd82611447565b611f3c576040517f08c379a0000000000000000000000000000000000000000000000000000000008152600401611f33906139c2565b60405180910390fd5b6000600a60008481526020019081526020016000208054611f5c90613db5565b80601f0160208091040260200160405190810160405280929190818152602001828054611f8890613db5565b8015611fd55780601f10611faa57610100808354040283529160200191611fd5565b820191906000526020600020905b815481529060010190602001808311611fb857829003601f168201915b505050505090506000611fe66124d5565b9050600081511415611ffc57819250505061203f565b600082511115612031578082604051602001612019929190613693565b6040516020818303038152906040529250505061203f565b61203a846124ec565b925050505b919050565b60007f80ac58cd000000000000000000000000000000000000000000000000000000007bffffffffffffffffffffffffffffffffffffffffffffffffffffffff1916827bffffffffffffffffffffffffffffffffffffffffffffffffffffffff1916148061210f57507f5b5e139f000000000000000000000000000000000000000000000000000000007bffffffffffffffffffffffffffffffffffffffffffffffffffffffff1916827bffffffffffffffffffffffffffffffffffffffffffffffffffffffff1916145b8061211f575061211e82612593565b5b9050919050565b6060600082141561216e576040518060400160405280600181526020017f300000000000000000000000000000000000000000000000000000000000000081525090506122ce565b600082905060005b600082146121a057808061218990613e18565b915050600a826121999190613c40565b9150612176565b60008167ffffffffffffffff8111156121e2577f4e487b7100000000000000000000000000000000000000000000000000000000600052604160045260246000fd5b6040519080825280601f01601f1916602001820160405280156122145781602001600182028036833780820191505090505b5090505b600085146122c75760018261222d9190613ccb565b9150600a8561223c9190613e61565b60306122489190613bea565b60f81b818381518110612284577f4e487b7100000000000000000000000000000000000000000000000000000000600052603260045260246000fd5b60200101907effffffffffffffffffffffffffffffffffffffffffffffffffffffffffffff1916908160001a905350600a856122c09190613c40565b9450612218565b8093505050505b919050565b6122dd83836125fd565b6122ea600084848461233e565b612329576040517f08c379a000000000000000000000000000000000000000000000000000000000815260040161232090613842565b60405180910390fd5b505050565b6123398383836127cb565b505050565b600061235f8473ffffffffffffffffffffffffffffffffffffffff166128df565b156124c8578373ffffffffffffffffffffffffffffffffffffffff1663150b7a026123886114b3565b8786866040518563ffffffff1660e01b81526004016123aa9493929190613799565b602060405180830381600087803b1580156123c457600080fd5b505af19250505080156123f557506040513d601f19601f820116820180604052508101906123f29190613026565b60015b612478573d8060008114612425576040519150601f19603f3d011682016040523d82523d6000602084013e61242a565b606091505b50600081511415612470576040517f08c379a000000000000000000000000000000000000000000000000000000000815260040161246790613842565b60405180910390fd5b805181602001fd5b63150b7a0260e01b7bffffffffffffffffffffffffffffffffffffffffffffffffffffffff1916817bffffffffffffffffffffffffffffffffffffffffffffffffffffffff1916149150506124cd565b600190505b949350505050565b606060405180602001604052806000815250905090565b60606124f782611447565b612536576040517f08c379a000000000000000000000000000000000000000000000000000000000815260040161252d90613a42565b60405180910390fd5b60006125406124d5565b90506000815111612560576040518060200160405280600081525061258b565b8061256a84612126565b60405160200161257b929190613693565b6040516020818303038152906040525b915050919050565b60007f01ffc9a7000000000000000000000000000000000000000000000000000000007bffffffffffffffffffffffffffffffffffffffffffffffffffffffff1916827bffffffffffffffffffffffffffffffffffffffffffffffffffffffff1916149050919050565b600073ffffffffffffffffffffffffffffffffffffffff168273ffffffffffffffffffffffffffffffffffffffff16141561266d576040517f08c379a0000000000000000000000000000000000000000000000000000000008152600401612664906139a2565b60405180910390fd5b61267681611447565b156126b6576040517f08c379a00000000000000000000000000000000000000000000000000000000081526004016126ad90613882565b60405180910390fd5b6126c26000838361232e565b6001600360008473ffffffffffffffffffffffffffffffffffffffff1673ffffffffffffffffffffffffffffffffffffffff16815260200190815260200160002060008282546127129190613bea565b92505081905550816002600083815260200190815260200160002060006101000a81548173ffffffffffffffffffffffffffffffffffffffff021916908373ffffffffffffffffffffffffffffffffffffffff160217905550808273ffffffffffffffffffffffffffffffffffffffff16600073ffffffffffffffffffffffffffffffffffffffff167fddf252ad1be2c89b69c2b068fc378daa952ba7f163c4a11628f55a4df523b3ef60405160405180910390a45050565b6127d68383836128f2565b600073ffffffffffffffffffffffffffffffffffffffff168373ffffffffffffffffffffffffffffffffffffffff16141561281957612814816128f7565b612858565b8173ffffffffffffffffffffffffffffffffffffffff168373ffffffffffffffffffffffffffffffffffffffff1614612857576128568382612940565b5b5b600073ffffffffffffffffffffffffffffffffffffffff168273ffffffffffffffffffffffffffffffffffffffff16141561289b5761289681612aad565b6128da565b8273ffffffffffffffffffffffffffffffffffffffff168273ffffffffffffffffffffffffffffffffffffffff16146128d9576128d88282612bf0565b5b5b505050565b600080823b905060008111915050919050565b505050565b6008805490506009600083815260200190815260200160002081905550600881908060018154018082558091505060019003906000526020600020016000909190919091505550565b6000600161294d84610fb5565b6129579190613ccb565b9050600060076000848152602001908152602001600020549050818114612a3c576000600660008673ffffffffffffffffffffffffffffffffffffffff1673ffffffffffffffffffffffffffffffffffffffff168152602001908152602001600020600084815260200190815260200160002054905080600660008773ffffffffffffffffffffffffffffffffffffffff1673ffffffffffffffffffffffffffffffffffffffff168152602001908152602001600020600084815260200190815260200160002081905550816007600083815260200190815260200160002081905550505b6007600084815260200190815260200160002060009055600660008573ffffffffffffffffffffffffffffffffffffffff1673ffffffffffffffffffffffffffffffffffffffff16815260200190815260200160002060008381526020019081526020016000206000905550505050565b60006001600880549050612ac19190613ccb565b9050600060096000848152602001908152602001600020549050600060088381548110612b17577f4e487b7100000000000000000000000000000000000000000000000000000000600052603260045260246000fd5b906000526020600020015490508060088381548110612b5f577f4e487b7100000000000000000000000000000000000000000000000000000000600052603260045260246000fd5b906000526020600020018190555081600960008381526020019081526020016000208190555060096000858152602001908152602001600020600090556008805480612bd4577f4e487b7100000000000000000000000000000000000000000000000000000000600052603160045260246000fd5b6001900381819060005260206000200160009055905550505050565b6000612bfb83610fb5565b905081600660008573ffffffffffffffffffffffffffffffffffffffff1673ffffffffffffffffffffffffffffffffffffffff168152602001908152602001600020600083815260200190815260200160002081905550806007600084815260200190815260200160002081905550505050565b828054612c7b90613db5565b90600052602060002090601f016020900481019282612c9d5760008555612ce4565b82601f10612cb657805160ff1916838001178555612ce4565b82800160010185558215612ce4579182015b82811115612ce3578251825591602001919060010190612cc8565b5b509050612cf19190612cf5565b5090565b5b80821115612d0e576000816000905550600101612cf6565b5090565b6000612d25612d2084613b6b565b613b46565b905082815260208101848484011115612d3d57600080fd5b612d48848285613d73565b509392505050565b600081359050612d5f81614832565b92915050565b600081359050612d7481614849565b92915050565b600081359050612d8981614860565b92915050565b600081519050612d9e81614860565b92915050565b600082601f830112612db557600080fd5b8135612dc5848260208601612d12565b91505092915050565b60008083601f840112612de057600080fd5b8235905067ffffffffffffffff811115612df957600080fd5b602083019150836001820283011115612e1157600080fd5b9250929050565b600081359050612e2781614877565b92915050565b600060208284031215612e3f57600080fd5b6000612e4d84828501612d50565b91505092915050565b60008060408385031215612e6957600080fd5b6000612e7785828601612d50565b9250506020612e8885828601612d50565b9150509250929050565b600080600060608486031215612ea757600080fd5b6000612eb586828701612d50565b9350506020612ec686828701612d50565b9250506040612ed786828701612e18565b9150509250925092565b60008060008060808587031215612ef757600080fd5b6000612f0587828801612d50565b9450506020612f1687828801612d50565b9350506040612f2787828801612e18565b925050606085013567ffffffffffffffff811115612f4457600080fd5b612f5087828801612da4565b91505092959194509250565b60008060408385031215612f6f57600080fd5b6000612f7d85828601612d50565b9250506020612f8e85828601612d65565b9150509250929050565b60008060408385031215612fab57600080fd5b6000612fb985828601612d50565b9250506020612fca85828601612e18565b9150509250929050565b600060208284031215612fe657600080fd5b6000612ff484828501612d65565b91505092915050565b60006020828403121561300f57600080fd5b600061301d84828501612d7a565b91505092915050565b60006020828403121561303857600080fd5b600061304684828501612d8f565b91505092915050565b60006020828403121561306157600080fd5b600061306f84828501612e18565b91505092915050565b60008060008060006060868803121561309057600080fd5b600061309e88828901612e18565b955050602086013567ffffffffffffffff8111156130bb57600080fd5b6130c788828901612dce565b9450945050604086013567ffffffffffffffff8111156130e657600080fd5b6130f288828901612dce565b92509250509295509295909350565b61310a81613cff565b82525050565b61311981613d11565b82525050565b600061312a82613b9c565b6131348185613bb2565b9350613144818560208601613d82565b61314d81613f4e565b840191505092915050565b600061316382613b9c565b61316d8185613bc3565b935061317d818560208601613d82565b80840191505092915050565b60006131958385613bdf565b93506131a2838584613d73565b82840190509392505050565b60006131b982613ba7565b6131c38185613bce565b93506131d3818560208601613d82565b6131dc81613f4e565b840191505092915050565b60006131f282613ba7565b6131fc8185613bdf565b935061320c818560208601613d82565b80840191505092915050565b6000613225602b83613bce565b915061323082613f5f565b604082019050919050565b6000613248603283613bce565b915061325382613fae565b604082019050919050565b600061326b602683613bce565b915061327682613ffd565b604082019050919050565b600061328e601183613bdf565b91506132998261404c565b601182019050919050565b60006132b1601c83613bce565b91506132bc82614075565b602082019050919050565b60006132d4602483613bce565b91506132df8261409e565b604082019050919050565b60006132f7601983613bce565b9150613302826140ed565b602082019050919050565b600061331a602c83613bce565b915061332582614116565b604082019050919050565b600061333d600d83613bdf565b915061334882614165565b600d82019050919050565b6000613360603883613bce565b915061336b8261418e565b604082019050919050565b6000613383602a83613bce565b915061338e826141dd565b604082019050919050565b60006133a6602983613bce565b91506133b18261422c565b604082019050919050565b60006133c9602e83613bce565b91506133d48261427b565b604082019050919050565b60006133ec601983613bce565b91506133f7826142ca565b602082019050919050565b600061340f605783613bdf565b915061341a826142f3565b605782019050919050565b6000613432600283613bdf565b915061343d82614368565b600282019050919050565b6000613455602083613bce565b915061346082614391565b602082019050919050565b6000613478603183613bce565b9150613483826143ba565b604082019050919050565b600061349b602c83613bce565b91506134a682614409565b604082019050919050565b60006134be602083613bce565b91506134c982614458565b602082019050919050565b60006134e1602983613bce565b91506134ec82614481565b604082019050919050565b6000613504602f83613bce565b915061350f826144d0565b604082019050919050565b6000613527605783613bdf565b91506135328261451f565b605782019050919050565b600061354a604483613bdf565b915061355582614594565b604482019050919050565b600061356d602183613bce565b915061357882614609565b604082019050919050565b6000613590601d83613bdf565b915061359b82614658565b601d82019050919050565b60006135b3603183613bce565b91506135be82614681565b604082019050919050565b60006135d6602c83613bce565b91506135e1826146d0565b604082019050919050565b60006135f9602683613bce565b91506136048261471f565b604082019050919050565b600061361c601183613bce565b91506136278261476e565b602082019050919050565b600061363f607783613bdf565b915061364a82614797565b607782019050919050565b61365e81613d69565b82525050565b60006136708285613158565b915061367c82846131e7565b915061368782613425565b91508190509392505050565b600061369f82856131e7565b91506136ab82846131e7565b91508190509392505050565b60006136c382856131e7565b91506136cf82846131e7565b91506136da82613330565b91508190509392505050565b60006136f182613281565b91506136fd82846131e7565b91506137088261353d565b915081905092915050565b600061371e82613583565b915061372a82846131e7565b915081905092915050565b600061374082613632565b915061374d828688613189565b91506137588261351a565b9150613765828486613189565b915061377082613402565b915081905095945050505050565b60006020820190506137936000830184613101565b92915050565b60006080820190506137ae6000830187613101565b6137bb6020830186613101565b6137c86040830185613655565b81810360608301526137da818461311f565b905095945050505050565b60006020820190506137fa6000830184613110565b92915050565b6000602082019050818103600083015261381a81846131ae565b905092915050565b6000602082019050818103600083015261383b81613218565b9050919050565b6000602082019050818103600083015261385b8161323b565b9050919050565b6000602082019050818103600083015261387b8161325e565b9050919050565b6000602082019050818103600083015261389b816132a4565b9050919050565b600060208201905081810360008301526138bb816132c7565b9050919050565b600060208201905081810360008301526138db816132ea565b9050919050565b600060208201905081810360008301526138fb8161330d565b9050919050565b6000602082019050818103600083015261391b81613353565b9050919050565b6000602082019050818103600083015261393b81613376565b9050919050565b6000602082019050818103600083015261395b81613399565b9050919050565b6000602082019050818103600083015261397b816133bc565b9050919050565b6000602082019050818103600083015261399b816133df565b9050919050565b600060208201905081810360008301526139bb81613448565b9050919050565b600060208201905081810360008301526139db8161346b565b9050919050565b600060208201905081810360008301526139fb8161348e565b9050919050565b60006020820190508181036000830152613a1b816134b1565b9050919050565b60006020820190508181036000830152613a3b816134d4565b9050919050565b60006020820190508181036000830152613a5b816134f7565b9050919050565b60006020820190508181036000830152613a7b81613560565b9050919050565b60006020820190508181036000830152613a9b816135a6565b9050919050565b60006020820190508181036000830152613abb816135c9565b9050919050565b60006020820190508181036000830152613adb816135ec565b9050919050565b60006020820190508181036000830152613afb8161360f565b9050919050565b6000602082019050613b176000830184613655565b92915050565b6000604082019050613b326000830185613655565b613b3f6020830184613655565b9392505050565b6000613b50613b61565b9050613b5c8282613de7565b919050565b6000604051905090565b600067ffffffffffffffff821115613b8657613b85613f1f565b5b613b8f82613f4e565b9050602081019050919050565b600081519050919050565b600081519050919050565b600082825260208201905092915050565b600081905092915050565b600082825260208201905092915050565b600081905092915050565b6000613bf582613d69565b9150613c0083613d69565b9250827fffffffffffffffffffffffffffffffffffffffffffffffffffffffffffffffff03821115613c3557613c34613e92565b5b828201905092915050565b6000613c4b82613d69565b9150613c5683613d69565b925082613c6657613c65613ec1565b5b828204905092915050565b6000613c7c82613d69565b9150613c8783613d69565b9250817fffffffffffffffffffffffffffffffffffffffffffffffffffffffffffffffff0483118215151615613cc057613cbf613e92565b5b828202905092915050565b6000613cd682613d69565b9150613ce183613d69565b925082821015613cf457613cf3613e92565b5b828203905092915050565b6000613d0a82613d49565b9050919050565b60008115159050919050565b60007fffffffff0000000000000000000000000000000000000000000000000000000082169050919050565b600073ffffffffffffffffffffffffffffffffffffffff82169050919050565b6000819050919050565b82818337600083830152505050565b60005b83811015613da0578082015181840152602081019050613d85565b83811115613daf576000848401525b50505050565b60006002820490506001821680613dcd57607f821691505b60208210811415613de157613de0613ef0565b5b50919050565b613df082613f4e565b810181811067ffffffffffffffff82111715613e0f57613e0e613f1f565b5b80604052505050565b6000613e2382613d69565b91507fffffffffffffffffffffffffffffffffffffffffffffffffffffffffffffffff821415613e5657613e55613e92565b5b600182019050919050565b6000613e6c82613d69565b9150613e7783613d69565b925082613e8757613e86613ec1565b5b828206905092915050565b7f4e487b7100000000000000000000000000000000000000000000000000000000600052601160045260246000fd5b7f4e487b7100000000000000000000000000000000000000000000000000000000600052601260045260246000fd5b7f4e487b7100000000000000000000000000000000000000000000000000000000600052602260045260246000fd5b7f4e487b7100000000000000000000000000000000000000000000000000000000600052604160045260246000fd5b6000601f19601f8301169050919050565b7f455243373231456e756d657261626c653a206f776e657220696e646578206f7560008201527f74206f6620626f756e6473000000000000000000000000000000000000000000602082015250565b7f4552433732313a207472616e7366657220746f206e6f6e20455243373231526560008201527f63656976657220696d706c656d656e7465720000000000000000000000000000602082015250565b7f4f776e61626c653a206e6577206f776e657220697320746865207a65726f206160008201527f6464726573730000000000000000000000000000000000000000000000000000602082015250565b7f7b226e616d65223a20224861696b752023000000000000000000000000000000600082015250565b7f4552433732313a20746f6b656e20616c7265616479206d696e74656400000000600082015250565b7f4552433732313a207472616e7366657220746f20746865207a65726f2061646460008201527f7265737300000000000000000000000000000000000000000000000000000000602082015250565b7f4552433732313a20617070726f766520746f2063616c6c657200000000000000600082015250565b7f4552433732313a206f70657261746f7220717565727920666f72206e6f6e657860008201527f697374656e7420746f6b656e0000000000000000000000000000000000000000602082015250565b7f3c2f746578743e3c2f7376673e00000000000000000000000000000000000000600082015250565b7f4552433732313a20617070726f76652063616c6c6572206973206e6f74206f7760008201527f6e6572206e6f7220617070726f76656420666f7220616c6c0000000000000000602082015250565b7f4552433732313a2062616c616e636520717565727920666f7220746865207a6560008201527f726f206164647265737300000000000000000000000000000000000000000000602082015250565b7f4552433732313a206f776e657220717565727920666f72206e6f6e657869737460008201527f656e7420746f6b656e0000000000000000000000000000000000000000000000602082015250565b7f45524337323155524953746f726167653a2055524920736574206f66206e6f6e60008201527f6578697374656e7420746f6b656e000000000000000000000000000000000000602082015250565b7f6d75737420626520612076616c69642068657820636f6c6f7200000000000000600082015250565b7f22202f3e3c7465787420783d273530252720793d273235252720636c6173733d60008201527f27626173652720646f6d696e616e742d626173656c696e653d276d6964646c6560208201527f2720746578742d616e63686f723d276d6964646c65273e000000000000000000604082015250565b7f227d000000000000000000000000000000000000000000000000000000000000600082015250565b7f4552433732313a206d696e7420746f20746865207a65726f2061646472657373600082015250565b7f45524337323155524953746f726167653a2055524920717565727920666f722060008201527f6e6f6e6578697374656e7420746f6b656e000000000000000000000000000000602082015250565b7f4552433732313a20617070726f76656420717565727920666f72206e6f6e657860008201527f697374656e7420746f6b656e0000000000000000000000000000000000000000602082015250565b7f4f776e61626c653a2063616c6c6572206973206e6f7420746865206f776e6572600082015250565b7f4552433732313a207472616e73666572206f6620746f6b656e2074686174206960008201527f73206e6f74206f776e0000000000000000000000000000000000000000000000602082015250565b7f4552433732314d657461646174613a2055524920717565727920666f72206e6f60008201527f6e6578697374656e7420746f6b656e0000000000000000000000000000000000602082015250565b7f3b20666f6e742d66616d696c793a2073657269663b20666f6e742d73697a653a60008201527f20323470783b207d3c2f7374796c653e3c726563742077696474683d2731303060208201527f2527206865696768743d2731303025272066696c6c3d22000000000000000000604082015250565b7f222c20226465736372697074696f6e223a2022596f7572206861696b75222c2060008201527f22696d616765223a2022646174613a696d6167652f7376672b786d6c3b62617360208201527f6536342c00000000000000000000000000000000000000000000000000000000604082015250565b7f4552433732313a20617070726f76616c20746f2063757272656e74206f776e6560008201527f7200000000000000000000000000000000000000000000000000000000000000602082015250565b7f646174613a6170706c69636174696f6e2f6a736f6e3b6261736536342c000000600082015250565b7f4552433732313a207472616e736665722063616c6c6572206973206e6f74206f60008201527f776e6572206e6f7220617070726f766564000000000000000000000000000000602082015250565b7f455243373231456e756d657261626c653a20676c6f62616c20696e646578206f60008201527f7574206f6620626f756e64730000000000000000000000000000000000000000602082015250565b7f596f752063616e27742065646974206120706f656d20796f7520646f6e27742060008201527f6f776e2e2e2e0000000000000000000000000000000000000000000000000000602082015250565b7f696e76616c69642068657820636f6c6f72000000000000000000000000000000600082015250565b7f3c73766720786d6c6e733d27687474703a2f2f7777772e77332e6f72672f323060008201527f30302f73766727207072657365727665417370656374526174696f3d27784d6960208201527f6e594d696e206d656574272076696577426f783d27302030203335302033353060408201527f273e3c7374796c653e2e62617365207b2066696c6c3a20000000000000000000606082015250565b61483b81613cff565b811461484657600080fd5b50565b61485281613d11565b811461485d57600080fd5b50565b61486981613d1d565b811461487457600080fd5b50565b61488081613d69565b811461488b57600080fd5b5056fe3c73766720786d6c6e733d27687474703a2f2f7777772e77332e6f72672f323030302f73766727207072657365727665417370656374526174696f3d27784d696e594d696e206d656574272076696577426f783d273020302033353020333530273e3c7374796c653e2e62617365207b2066696c6c3a2077686974653b20666f6e742d66616d696c793a2073657269663b20666f6e742d73697a653a20323470783b207d3c2f7374796c653e3c726563742077696474683d273130302527206865696768743d2731303025272066696c6c3d272335353834396627202f3e3c7465787420783d273530252720793d273235252720636c6173733d27626173652720646f6d696e616e742d626173656c696e653d276d6964646c652720746578742d616e63686f723d276d6964646c65273e3c747370616e20783d22353025222064793d2230656d223e736e6f7720636f617473207468652077696e646f773c2f747370616e3e3c747370616e20783d22353025222064793d22312e31656d223e666c616b657320626c6f77206163726f73732074686520726f6f66746f703c2f747370616e3e3c747370616e20783d22353025222064793d22312e31656d223e6f6820686f7720636f6c642069742069733c2f747370616e3e4142434445464748494a4b4c4d4e4f505152535455565758595a6162636465666768696a6b6c6d6e6f707172737475767778797a303132333435363738392b2fa2646970667358221220f702a650b4375823753ec4c94441a4b311024f3e96ac389a8c4448ce0474595564736f6c63430008040033",
  "linkReferences": {},
  "deployedLinkReferences": {}
}