{
  "_format": "hh-sol-artifact-1",
  "contractName": "Haiku",
  "sourceName": "contracts/Haiku.sol",
  "abi": [
    {
      "inputs": [
        {
          "internalType": "uint256",
          "name": "_maxHaikus",
          "type": "uint256"
        }
      ],
      "stateMutability": "nonpayable",
      "type": "constructor"
    },
    {
      "anonymous": false,
      "inputs": [
        {
          "indexed": true,
          "internalType": "address",
          "name": "owner",
          "type": "address"
        },
        {
          "indexed": true,
          "internalType": "address",
          "name": "approved",
          "type": "address"
        },
        {
          "indexed": true,
          "internalType": "uint256",
          "name": "tokenId",
          "type": "uint256"
        }
      ],
      "name": "Approval",
      "type": "event"
    },
    {
      "anonymous": false,
      "inputs": [
        {
          "indexed": true,
          "internalType": "address",
          "name": "owner",
          "type": "address"
        },
        {
          "indexed": true,
          "internalType": "address",
          "name": "operator",
          "type": "address"
        },
        {
          "indexed": false,
          "internalType": "bool",
          "name": "approved",
          "type": "bool"
        }
      ],
      "name": "ApprovalForAll",
      "type": "event"
    },
    {
      "anonymous": false,
      "inputs": [
        {
          "indexed": true,
          "internalType": "address",
          "name": "owner",
          "type": "address"
        },
        {
          "indexed": false,
          "internalType": "uint256",
          "name": "timestamp",
          "type": "uint256"
        },
        {
          "indexed": false,
          "internalType": "uint256",
          "name": "tokenId",
          "type": "uint256"
        }
      ],
      "name": "HaikuUpdated",
      "type": "event"
    },
    {
      "anonymous": false,
      "inputs": [
        {
          "indexed": true,
          "internalType": "address",
          "name": "to",
          "type": "address"
        },
        {
          "indexed": false,
          "internalType": "uint256",
          "name": "timestamp",
          "type": "uint256"
        },
        {
          "indexed": false,
          "internalType": "uint256",
          "name": "tokenId",
          "type": "uint256"
        }
      ],
      "name": "NFTMinted",
      "type": "event"
    },
    {
      "anonymous": false,
      "inputs": [
        {
          "indexed": true,
          "internalType": "address",
          "name": "previousOwner",
          "type": "address"
        },
        {
          "indexed": true,
          "internalType": "address",
          "name": "newOwner",
          "type": "address"
        }
      ],
      "name": "OwnershipTransferred",
      "type": "event"
    },
    {
      "anonymous": false,
      "inputs": [
        {
          "indexed": true,
          "internalType": "address",
          "name": "from",
          "type": "address"
        },
        {
          "indexed": true,
          "internalType": "address",
          "name": "to",
          "type": "address"
        },
        {
          "indexed": true,
          "internalType": "uint256",
          "name": "tokenId",
          "type": "uint256"
        }
      ],
      "name": "Transfer",
      "type": "event"
    },
    {
      "inputs": [],
      "name": "MAX_PER_WALLET",
      "outputs": [
        {
          "internalType": "uint256",
          "name": "",
          "type": "uint256"
        }
      ],
      "stateMutability": "view",
      "type": "function"
    },
    {
      "inputs": [],
      "name": "PUBLIC_SALE_PRICE",
      "outputs": [
        {
          "internalType": "uint256",
          "name": "",
          "type": "uint256"
        }
      ],
      "stateMutability": "view",
      "type": "function"
    },
    {
      "inputs": [
        {
          "internalType": "address",
          "name": "to",
          "type": "address"
        },
        {
          "internalType": "uint256",
          "name": "tokenId",
          "type": "uint256"
        }
      ],
      "name": "approve",
      "outputs": [],
      "stateMutability": "nonpayable",
      "type": "function"
    },
    {
      "inputs": [
        {
          "internalType": "address",
          "name": "owner",
          "type": "address"
        }
      ],
      "name": "balanceOf",
      "outputs": [
        {
          "internalType": "uint256",
          "name": "",
          "type": "uint256"
        }
      ],
      "stateMutability": "view",
      "type": "function"
    },
    {
      "inputs": [
        {
          "internalType": "uint256",
          "name": "tokenId",
          "type": "uint256"
        }
      ],
      "name": "getApproved",
      "outputs": [
        {
          "internalType": "address",
          "name": "",
          "type": "address"
        }
      ],
      "stateMutability": "view",
      "type": "function"
    },
    {
      "inputs": [
        {
          "internalType": "address",
          "name": "owner",
          "type": "address"
        },
        {
          "internalType": "address",
          "name": "operator",
          "type": "address"
        }
      ],
      "name": "isApprovedForAll",
      "outputs": [
        {
          "internalType": "bool",
          "name": "",
          "type": "bool"
        }
      ],
      "stateMutability": "view",
      "type": "function"
    },
    {
      "inputs": [],
      "name": "isPublicSaleActive",
      "outputs": [
        {
          "internalType": "bool",
          "name": "",
          "type": "bool"
        }
      ],
      "stateMutability": "view",
      "type": "function"
    },
    {
      "inputs": [],
      "name": "maxHaikus",
      "outputs": [
        {
          "internalType": "uint256",
          "name": "",
          "type": "uint256"
        }
      ],
      "stateMutability": "view",
      "type": "function"
    },
    {
      "inputs": [],
      "name": "mint",
      "outputs": [],
      "stateMutability": "nonpayable",
      "type": "function"
    },
    {
      "inputs": [],
      "name": "name",
      "outputs": [
        {
          "internalType": "string",
          "name": "",
          "type": "string"
        }
      ],
      "stateMutability": "view",
      "type": "function"
    },
    {
      "inputs": [],
      "name": "owner",
      "outputs": [
        {
          "internalType": "address",
          "name": "",
          "type": "address"
        }
      ],
      "stateMutability": "view",
      "type": "function"
    },
    {
      "inputs": [
        {
          "internalType": "uint256",
          "name": "tokenId",
          "type": "uint256"
        }
      ],
      "name": "ownerOf",
      "outputs": [
        {
          "internalType": "address",
          "name": "",
          "type": "address"
        }
      ],
      "stateMutability": "view",
      "type": "function"
    },
    {
      "inputs": [],
      "name": "renounceOwnership",
      "outputs": [],
      "stateMutability": "nonpayable",
      "type": "function"
    },
    {
      "inputs": [
        {
          "internalType": "address",
          "name": "from",
          "type": "address"
        },
        {
          "internalType": "address",
          "name": "to",
          "type": "address"
        },
        {
          "internalType": "uint256",
          "name": "tokenId",
          "type": "uint256"
        }
      ],
      "name": "safeTransferFrom",
      "outputs": [],
      "stateMutability": "nonpayable",
      "type": "function"
    },
    {
      "inputs": [
        {
          "internalType": "address",
          "name": "from",
          "type": "address"
        },
        {
          "internalType": "address",
          "name": "to",
          "type": "address"
        },
        {
          "internalType": "uint256",
          "name": "tokenId",
          "type": "uint256"
        },
        {
          "internalType": "bytes",
          "name": "_data",
          "type": "bytes"
        }
      ],
      "name": "safeTransferFrom",
      "outputs": [],
      "stateMutability": "nonpayable",
      "type": "function"
    },
    {
      "inputs": [
        {
          "internalType": "address",
          "name": "operator",
          "type": "address"
        },
        {
          "internalType": "bool",
          "name": "approved",
          "type": "bool"
        }
      ],
      "name": "setApprovalForAll",
      "outputs": [],
      "stateMutability": "nonpayable",
      "type": "function"
    },
    {
      "inputs": [
        {
          "internalType": "bool",
          "name": "_isPublicSaleActive",
          "type": "bool"
        }
      ],
      "name": "setIsPublicSaleActive",
      "outputs": [],
      "stateMutability": "nonpayable",
      "type": "function"
    },
    {
      "inputs": [
        {
          "internalType": "bytes4",
          "name": "interfaceId",
          "type": "bytes4"
        }
      ],
      "name": "supportsInterface",
      "outputs": [
        {
          "internalType": "bool",
          "name": "",
          "type": "bool"
        }
      ],
      "stateMutability": "view",
      "type": "function"
    },
    {
      "inputs": [],
      "name": "symbol",
      "outputs": [
        {
          "internalType": "string",
          "name": "",
          "type": "string"
        }
      ],
      "stateMutability": "view",
      "type": "function"
    },
    {
      "inputs": [
        {
          "internalType": "uint256",
          "name": "index",
          "type": "uint256"
        }
      ],
      "name": "tokenByIndex",
      "outputs": [
        {
          "internalType": "uint256",
          "name": "",
          "type": "uint256"
        }
      ],
      "stateMutability": "view",
      "type": "function"
    },
    {
      "inputs": [
        {
          "internalType": "address",
          "name": "owner",
          "type": "address"
        },
        {
          "internalType": "uint256",
          "name": "index",
          "type": "uint256"
        }
      ],
      "name": "tokenOfOwnerByIndex",
      "outputs": [
        {
          "internalType": "uint256",
          "name": "",
          "type": "uint256"
        }
      ],
      "stateMutability": "view",
      "type": "function"
    },
    {
      "inputs": [
        {
          "internalType": "uint256",
          "name": "tokenId",
          "type": "uint256"
        }
      ],
      "name": "tokenURI",
      "outputs": [
        {
          "internalType": "string",
          "name": "",
          "type": "string"
        }
      ],
      "stateMutability": "view",
      "type": "function"
    },
    {
      "inputs": [],
      "name": "totalSupply",
      "outputs": [
        {
          "internalType": "uint256",
          "name": "",
          "type": "uint256"
        }
      ],
      "stateMutability": "view",
      "type": "function"
    },
    {
      "inputs": [
        {
          "internalType": "address",
          "name": "from",
          "type": "address"
        },
        {
          "internalType": "address",
          "name": "to",
          "type": "address"
        },
        {
          "internalType": "uint256",
          "name": "tokenId",
          "type": "uint256"
        }
      ],
      "name": "transferFrom",
      "outputs": [],
      "stateMutability": "nonpayable",
      "type": "function"
    },
    {
      "inputs": [
        {
          "internalType": "address",
          "name": "newOwner",
          "type": "address"
        }
      ],
      "name": "transferOwnership",
      "outputs": [],
      "stateMutability": "nonpayable",
      "type": "function"
    },
    {
      "inputs": [
        {
          "internalType": "uint256",
          "name": "tokenId",
          "type": "uint256"
        },
        {
          "internalType": "string[]",
          "name": "haiku",
          "type": "string[]"
        }
      ],
      "name": "updatePoem",
      "outputs": [],
      "stateMutability": "nonpayable",
      "type": "function"
    }
  ],
  "bytecode": "0x6080604052604051806101600160405280610131815260200162004bed6101319139600f90805190602001906200003892919062000223565b503480156200004657600080fd5b5060405162004d1e38038062004d1e83398181016040528101906200006c9190620002ea565b6040518060400160405280600581526020017f4861696b750000000000000000000000000000000000000000000000000000008152506040518060400160405280600581526020017f4841494b550000000000000000000000000000000000000000000000000000008152508160009080519060200190620000f092919062000223565b5080600190805190602001906200010992919062000223565b5050506200012c620001206200015560201b60201c565b6200015d60201b60201c565b80600d819055506001600e60006101000a81548160ff021916908315150217905550506200039f565b600033905090565b6000600b60009054906101000a900473ffffffffffffffffffffffffffffffffffffffff16905081600b60006101000a81548173ffffffffffffffffffffffffffffffffffffffff021916908373ffffffffffffffffffffffffffffffffffffffff1602179055508173ffffffffffffffffffffffffffffffffffffffff168173ffffffffffffffffffffffffffffffffffffffff167f8be0079c531659141344cd1fd0a4f28419497f9722a3daafe3b4186f6b6457e060405160405180910390a35050565b828054620002319062000320565b90600052602060002090601f016020900481019282620002555760008555620002a1565b82601f106200027057805160ff1916838001178555620002a1565b82800160010185558215620002a1579182015b82811115620002a057825182559160200191906001019062000283565b5b509050620002b09190620002b4565b5090565b5b80821115620002cf576000816000905550600101620002b5565b5090565b600081519050620002e48162000385565b92915050565b600060208284031215620002fd57600080fd5b60006200030d84828501620002d3565b91505092915050565b6000819050919050565b600060028204905060018216806200033957607f821691505b6020821081141562000350576200034f62000356565b5b50919050565b7f4e487b7100000000000000000000000000000000000000000000000000000000600052602260045260246000fd5b620003908162000316565b81146200039c57600080fd5b50565b61483e80620003af6000396000f3fe608060405234801561001057600080fd5b506004361061018e5760003560e01c80634f6ccce7116100de578063a22cb46511610097578063ce3f331111610071578063ce3f331114610471578063e985e9c51461048d578063f2fde38b146104bd578063ffcc0601146104d95761018e565b8063a22cb46514610409578063b88d4fde14610425578063c87b56dd146104415761018e565b80634f6ccce7146103335780636352211e1461036357806370a0823114610393578063715018a6146103c35780638da5cb5b146103cd57806395d89b41146103eb5761018e565b80631249c58b1161014b57806323b872dd1161012557806323b872dd146102af57806328cad13d146102cb5780632f745c59146102e757806342842e0e146103175761018e565b80631249c58b1461026957806318160ddd146102735780631e84c413146102915761018e565b806301ffc9a71461019357806306fdde03146101c357806307e89ec0146101e1578063081812fc146101ff578063095ea7b31461022f5780630f2cdd6c1461024b575b600080fd5b6101ad60048036038101906101a89190612e9f565b6104f7565b6040516101ba91906136ef565b60405180910390f35b6101cb610509565b6040516101d8919061370a565b60405180910390f35b6101e961059b565b6040516101f69190613a0c565b60405180910390f35b61021960048036038101906102149190612ef1565b6105a6565b6040516102269190613688565b60405180910390f35b61024960048036038101906102449190612e3a565b61062b565b005b610253610743565b6040516102609190613a0c565b60405180910390f35b610271610748565b005b61027b610871565b6040516102889190613a0c565b60405180910390f35b61029961087e565b6040516102a691906136ef565b60405180910390f35b6102c960048036038101906102c49190612d34565b610891565b005b6102e560048036038101906102e09190612e76565b6108f1565b005b61030160048036038101906102fc9190612e3a565b61098a565b60405161030e9190613a0c565b60405180910390f35b610331600480360381019061032c9190612d34565b610a2f565b005b61034d60048036038101906103489190612ef1565b610a4f565b60405161035a9190613a0c565b60405180910390f35b61037d60048036038101906103789190612ef1565b610ae6565b60405161038a9190613688565b60405180910390f35b6103ad60048036038101906103a89190612ccf565b610b98565b6040516103ba9190613a0c565b60405180910390f35b6103cb610c50565b005b6103d5610cd8565b6040516103e29190613688565b60405180910390f35b6103f3610d02565b604051610400919061370a565b60405180910390f35b610423600480360381019061041e9190612dfe565b610d94565b005b61043f600480360381019061043a9190612d83565b610daa565b005b61045b60048036038101906104569190612ef1565b610e0c565b604051610468919061370a565b60405180910390f35b61048b60048036038101906104869190612f1a565b610e1e565b005b6104a760048036038101906104a29190612cf8565b6111ed565b6040516104b491906136ef565b60405180910390f35b6104d760048036038101906104d29190612ccf565b611281565b005b6104e1611379565b6040516104ee9190613a0c565b60405180910390f35b60006105028261137f565b9050919050565b60606000805461051890613d2b565b80601f016020809104026020016040519081016040528092919081815260200182805461054490613d2b565b80156105915780601f1061056657610100808354040283529160200191610591565b820191906000526020600020905b81548152906001019060200180831161057457829003601f168201915b5050505050905090565b66b1a2bc2ec5000081565b60006105b1826113f9565b6105f0576040517f08c379a00000000000000000000000000000000000000000000000000000000081526004016105e7906138ec565b60405180910390fd5b6004600083815260200190815260200160002060009054906101000a900473ffffffffffffffffffffffffffffffffffffffff169050919050565b600061063682610ae6565b90508073ffffffffffffffffffffffffffffffffffffffff168373ffffffffffffffffffffffffffffffffffffffff1614156106a7576040517f08c379a000000000000000000000000000000000000000000000000000000000815260040161069e9061396c565b60405180910390fd5b8073ffffffffffffffffffffffffffffffffffffffff166106c6611465565b73ffffffffffffffffffffffffffffffffffffffff1614806106f557506106f4816106ef611465565b6111ed565b5b610734576040517f08c379a000000000000000000000000000000000000000000000000000000000815260040161072b9061382c565b60405180910390fd5b61073e838361146d565b505050565b600281565b6000610754600c611526565b905060006040518060e0016040528060a8815260200161472160a8913990506000600f826040516020016107899291906135a7565b604051602081830303815290604052905060006107d66107a885611534565b6107b184611565565b6040516020016107c2929190613554565b604051602081830303815290604052611565565b90506000816040516020016107eb9190613666565b60405160208183030381529060405290506108063386611723565b6108108582611741565b61081a600c6117b5565b3373ffffffffffffffffffffffffffffffffffffffff167f3a8a89b59a31c39a36febecb987e0657ab7b7c73b60ebacb44dcb9886c2d5c8a4287604051610862929190613a27565b60405180910390a25050505050565b6000600880549050905090565b600e60009054906101000a900460ff1681565b6108a261089c611465565b826117cb565b6108e1576040517f08c379a00000000000000000000000000000000000000000000000000000000081526004016108d89061398c565b60405180910390fd5b6108ec8383836118a9565b505050565b6108f9611465565b73ffffffffffffffffffffffffffffffffffffffff16610917610cd8565b73ffffffffffffffffffffffffffffffffffffffff161461096d576040517f08c379a00000000000000000000000000000000000000000000000000000000081526004016109649061390c565b60405180910390fd5b80600e60006101000a81548160ff02191690831515021790555050565b600061099583610b98565b82106109d6576040517f08c379a00000000000000000000000000000000000000000000000000000000081526004016109cd9061374c565b60405180910390fd5b600660008473ffffffffffffffffffffffffffffffffffffffff1673ffffffffffffffffffffffffffffffffffffffff168152602001908152602001600020600083815260200190815260200160002054905092915050565b610a4a83838360405180602001604052806000815250610daa565b505050565b6000610a59610871565b8210610a9a576040517f08c379a0000000000000000000000000000000000000000000000000000000008152600401610a91906139cc565b60405180910390fd5b60088281548110610ad4577f4e487b7100000000000000000000000000000000000000000000000000000000600052603260045260246000fd5b90600052602060002001549050919050565b6000806002600084815260200190815260200160002060009054906101000a900473ffffffffffffffffffffffffffffffffffffffff169050600073ffffffffffffffffffffffffffffffffffffffff168173ffffffffffffffffffffffffffffffffffffffff161415610b8f576040517f08c379a0000000000000000000000000000000000000000000000000000000008152600401610b869061386c565b60405180910390fd5b80915050919050565b60008073ffffffffffffffffffffffffffffffffffffffff168273ffffffffffffffffffffffffffffffffffffffff161415610c09576040517f08c379a0000000000000000000000000000000000000000000000000000000008152600401610c009061384c565b60405180910390fd5b600360008373ffffffffffffffffffffffffffffffffffffffff1673ffffffffffffffffffffffffffffffffffffffff168152602001908152602001600020549050919050565b610c58611465565b73ffffffffffffffffffffffffffffffffffffffff16610c76610cd8565b73ffffffffffffffffffffffffffffffffffffffff1614610ccc576040517f08c379a0000000000000000000000000000000000000000000000000000000008152600401610cc39061390c565b60405180910390fd5b610cd66000611b05565b565b6000600b60009054906101000a900473ffffffffffffffffffffffffffffffffffffffff16905090565b606060018054610d1190613d2b565b80601f0160208091040260200160405190810160405280929190818152602001828054610d3d90613d2b565b8015610d8a5780601f10610d5f57610100808354040283529160200191610d8a565b820191906000526020600020905b815481529060010190602001808311610d6d57829003601f168201915b5050505050905090565b610da6610d9f611465565b8383611bcb565b5050565b610dbb610db5611465565b836117cb565b610dfa576040517f08c379a0000000000000000000000000000000000000000000000000000000008152600401610df19061398c565b60405180910390fd5b610e0684848484611d38565b50505050565b6060610e1782611d94565b9050919050565b82610e2933826117cb565b610e68576040517f08c379a0000000000000000000000000000000000000000000000000000000008152600401610e5f906139ec565b60405180910390fd5b828260038282905014610eb0576040517f08c379a0000000000000000000000000000000000000000000000000000000008152600401610ea79061372c565b60405180910390fd5b602882826000818110610eec577f4e487b7100000000000000000000000000000000000000000000000000000000600052603260045260246000fd5b9050602002810190610efe9190613a50565b9050108015610f5a5750602882826001818110610f44577f4e487b7100000000000000000000000000000000000000000000000000000000600052603260045260246000fd5b9050602002810190610f569190613a50565b9050105b8015610fb35750602882826002818110610f9d577f4e487b7100000000000000000000000000000000000000000000000000000000600052603260045260246000fd5b9050602002810190610faf9190613a50565b9050105b610ff2576040517f08c379a0000000000000000000000000000000000000000000000000000000008152600401610fe9906139ac565b60405180910390fd5b60008585600081811061102e577f4e487b7100000000000000000000000000000000000000000000000000000000600052603260045260246000fd5b90506020028101906110409190613a50565b8787600181811061107a577f4e487b7100000000000000000000000000000000000000000000000000000000600052603260045260246000fd5b905060200281019061108c9190613a50565b898960028181106110c6577f4e487b7100000000000000000000000000000000000000000000000000000000600052603260045260246000fd5b90506020028101906110d89190613a50565b6040516020016110ed96959493929190613603565b60405160208183030381529060405290506000600f826040516020016111149291906135a7565b604051602081830303815290604052905060006111616111338a611534565b61113c84611565565b60405160200161114d929190613554565b604051602081830303815290604052611565565b90506000816040516020016111769190613666565b60405160208183030381529060405290506111918a82611741565b3373ffffffffffffffffffffffffffffffffffffffff167f0c7c98b8a3af0647c44b0ab7b725e277064ae6ac7cd6044e9cf83ff16b609573428c6040516111d9929190613a27565b60405180910390a250505050505050505050565b6000600560008473ffffffffffffffffffffffffffffffffffffffff1673ffffffffffffffffffffffffffffffffffffffff16815260200190815260200160002060008373ffffffffffffffffffffffffffffffffffffffff1673ffffffffffffffffffffffffffffffffffffffff16815260200190815260200160002060009054906101000a900460ff16905092915050565b611289611465565b73ffffffffffffffffffffffffffffffffffffffff166112a7610cd8565b73ffffffffffffffffffffffffffffffffffffffff16146112fd576040517f08c379a00000000000000000000000000000000000000000000000000000000081526004016112f49061390c565b60405180910390fd5b600073ffffffffffffffffffffffffffffffffffffffff168173ffffffffffffffffffffffffffffffffffffffff16141561136d576040517f08c379a00000000000000000000000000000000000000000000000000000000081526004016113649061378c565b60405180910390fd5b61137681611b05565b50565b600d5481565b60007f780e9d63000000000000000000000000000000000000000000000000000000007bffffffffffffffffffffffffffffffffffffffffffffffffffffffff1916827bffffffffffffffffffffffffffffffffffffffffffffffffffffffff191614806113f257506113f182611ee6565b5b9050919050565b60008073ffffffffffffffffffffffffffffffffffffffff166002600084815260200190815260200160002060009054906101000a900473ffffffffffffffffffffffffffffffffffffffff1673ffffffffffffffffffffffffffffffffffffffff1614159050919050565b600033905090565b816004600083815260200190815260200160002060006101000a81548173ffffffffffffffffffffffffffffffffffffffff021916908373ffffffffffffffffffffffffffffffffffffffff160217905550808273ffffffffffffffffffffffffffffffffffffffff166114e083610ae6565b73ffffffffffffffffffffffffffffffffffffffff167f8c5be1e5ebec7d5bd14f71427d1e84f3dd0314c0f7b2291e5b200ac8c7c3b92560405160405180910390a45050565b600081600001549050919050565b606061153f82611fc8565b60405160200161154f91906135d6565b6040516020818303038152906040529050919050565b6060600082519050600081141561158e576040518060200160405280600081525091505061171e565b6000600360028361159f9190613b60565b6115a99190613bb6565b60046115b59190613be7565b905060006020826115c69190613b60565b67ffffffffffffffff811115611605577f4e487b7100000000000000000000000000000000000000000000000000000000600052604160045260246000fd5b6040519080825280601f01601f1916602001820160405280156116375781602001600182028036833780820191505090505b50905060006040518060600160405280604081526020016147c9604091399050600181016020830160005b868110156116db5760038101905062ffffff818a015116603f8160121c168401518060081b905060ff603f83600c1c1686015116810190508060081b905060ff603f8360061c1686015116810190508060081b905060ff603f831686015116810190508060e01b90508084526004840193505050611662565b5060038606600181146116f5576002811461170557611710565b613d3d60f01b6002830352611710565b603d60f81b60018303525b508484525050819450505050505b919050565b61173d828260405180602001604052806000815250612175565b5050565b61174a826113f9565b611789576040517f08c379a00000000000000000000000000000000000000000000000000000000081526004016117809061388c565b60405180910390fd5b80600a600084815260200190815260200160002090805190602001906117b0929190612b11565b505050565b6001816000016000828254019250508190555050565b60006117d6826113f9565b611815576040517f08c379a000000000000000000000000000000000000000000000000000000000815260040161180c9061380c565b60405180910390fd5b600061182083610ae6565b90508073ffffffffffffffffffffffffffffffffffffffff168473ffffffffffffffffffffffffffffffffffffffff16148061188f57508373ffffffffffffffffffffffffffffffffffffffff16611877846105a6565b73ffffffffffffffffffffffffffffffffffffffff16145b806118a0575061189f81856111ed565b5b91505092915050565b8273ffffffffffffffffffffffffffffffffffffffff166118c982610ae6565b73ffffffffffffffffffffffffffffffffffffffff161461191f576040517f08c379a00000000000000000000000000000000000000000000000000000000081526004016119169061392c565b60405180910390fd5b600073ffffffffffffffffffffffffffffffffffffffff168273ffffffffffffffffffffffffffffffffffffffff16141561198f576040517f08c379a0000000000000000000000000000000000000000000000000000000008152600401611986906137cc565b60405180910390fd5b61199a8383836121d0565b6119a560008261146d565b6001600360008573ffffffffffffffffffffffffffffffffffffffff1673ffffffffffffffffffffffffffffffffffffffff16815260200190815260200160002060008282546119f59190613c41565b925050819055506001600360008473ffffffffffffffffffffffffffffffffffffffff1673ffffffffffffffffffffffffffffffffffffffff1681526020019081526020016000206000828254611a4c9190613b60565b92505081905550816002600083815260200190815260200160002060006101000a81548173ffffffffffffffffffffffffffffffffffffffff021916908373ffffffffffffffffffffffffffffffffffffffff160217905550808273ffffffffffffffffffffffffffffffffffffffff168473ffffffffffffffffffffffffffffffffffffffff167fddf252ad1be2c89b69c2b068fc378daa952ba7f163c4a11628f55a4df523b3ef60405160405180910390a4505050565b6000600b60009054906101000a900473ffffffffffffffffffffffffffffffffffffffff16905081600b60006101000a81548173ffffffffffffffffffffffffffffffffffffffff021916908373ffffffffffffffffffffffffffffffffffffffff1602179055508173ffffffffffffffffffffffffffffffffffffffff168173ffffffffffffffffffffffffffffffffffffffff167f8be0079c531659141344cd1fd0a4f28419497f9722a3daafe3b4186f6b6457e060405160405180910390a35050565b8173ffffffffffffffffffffffffffffffffffffffff168373ffffffffffffffffffffffffffffffffffffffff161415611c3a576040517f08c379a0000000000000000000000000000000000000000000000000000000008152600401611c31906137ec565b60405180910390fd5b80600560008573ffffffffffffffffffffffffffffffffffffffff1673ffffffffffffffffffffffffffffffffffffffff16815260200190815260200160002060008473ffffffffffffffffffffffffffffffffffffffff1673ffffffffffffffffffffffffffffffffffffffff16815260200190815260200160002060006101000a81548160ff0219169083151502179055508173ffffffffffffffffffffffffffffffffffffffff168373ffffffffffffffffffffffffffffffffffffffff167f17307eab39ab6107e8899845ad3d59bd9653f200f220920489ca2b5937696c3183604051611d2b91906136ef565b60405180910390a3505050565b611d438484846118a9565b611d4f848484846121e0565b611d8e576040517f08c379a0000000000000000000000000000000000000000000000000000000008152600401611d859061376c565b60405180910390fd5b50505050565b6060611d9f826113f9565b611dde576040517f08c379a0000000000000000000000000000000000000000000000000000000008152600401611dd5906138cc565b60405180910390fd5b6000600a60008481526020019081526020016000208054611dfe90613d2b565b80601f0160208091040260200160405190810160405280929190818152602001828054611e2a90613d2b565b8015611e775780601f10611e4c57610100808354040283529160200191611e77565b820191906000526020600020905b815481529060010190602001808311611e5a57829003601f168201915b505050505090506000611e88612377565b9050600081511415611e9e578192505050611ee1565b600082511115611ed3578082604051602001611ebb929190613583565b60405160208183030381529060405292505050611ee1565b611edc8461238e565b925050505b919050565b60007f80ac58cd000000000000000000000000000000000000000000000000000000007bffffffffffffffffffffffffffffffffffffffffffffffffffffffff1916827bffffffffffffffffffffffffffffffffffffffffffffffffffffffff19161480611fb157507f5b5e139f000000000000000000000000000000000000000000000000000000007bffffffffffffffffffffffffffffffffffffffffffffffffffffffff1916827bffffffffffffffffffffffffffffffffffffffffffffffffffffffff1916145b80611fc15750611fc082612435565b5b9050919050565b60606000821415612010576040518060400160405280600181526020017f30000000000000000000000000000000000000000000000000000000000000008152509050612170565b600082905060005b6000821461204257808061202b90613d8e565b915050600a8261203b9190613bb6565b9150612018565b60008167ffffffffffffffff811115612084577f4e487b7100000000000000000000000000000000000000000000000000000000600052604160045260246000fd5b6040519080825280601f01601f1916602001820160405280156120b65781602001600182028036833780820191505090505b5090505b60008514612169576001826120cf9190613c41565b9150600a856120de9190613dd7565b60306120ea9190613b60565b60f81b818381518110612126577f4e487b7100000000000000000000000000000000000000000000000000000000600052603260045260246000fd5b60200101907effffffffffffffffffffffffffffffffffffffffffffffffffffffffffffff1916908160001a905350600a856121629190613bb6565b94506120ba565b8093505050505b919050565b61217f838361249f565b61218c60008484846121e0565b6121cb576040517f08c379a00000000000000000000000000000000000000000000000000000000081526004016121c29061376c565b60405180910390fd5b505050565b6121db83838361266d565b505050565b60006122018473ffffffffffffffffffffffffffffffffffffffff16612781565b1561236a578373ffffffffffffffffffffffffffffffffffffffff1663150b7a0261222a611465565b8786866040518563ffffffff1660e01b815260040161224c94939291906136a3565b602060405180830381600087803b15801561226657600080fd5b505af192505050801561229757506040513d601f19601f820116820180604052508101906122949190612ec8565b60015b61231a573d80600081146122c7576040519150601f19603f3d011682016040523d82523d6000602084013e6122cc565b606091505b50600081511415612312576040517f08c379a00000000000000000000000000000000000000000000000000000000081526004016123099061376c565b60405180910390fd5b805181602001fd5b63150b7a0260e01b7bffffffffffffffffffffffffffffffffffffffffffffffffffffffff1916817bffffffffffffffffffffffffffffffffffffffffffffffffffffffff19161491505061236f565b600190505b949350505050565b606060405180602001604052806000815250905090565b6060612399826113f9565b6123d8576040517f08c379a00000000000000000000000000000000000000000000000000000000081526004016123cf9061394c565b60405180910390fd5b60006123e2612377565b90506000815111612402576040518060200160405280600081525061242d565b8061240c84611fc8565b60405160200161241d929190613583565b6040516020818303038152906040525b915050919050565b60007f01ffc9a7000000000000000000000000000000000000000000000000000000007bffffffffffffffffffffffffffffffffffffffffffffffffffffffff1916827bffffffffffffffffffffffffffffffffffffffffffffffffffffffff1916149050919050565b600073ffffffffffffffffffffffffffffffffffffffff168273ffffffffffffffffffffffffffffffffffffffff16141561250f576040517f08c379a0000000000000000000000000000000000000000000000000000000008152600401612506906138ac565b60405180910390fd5b612518816113f9565b15612558576040517f08c379a000000000000000000000000000000000000000000000000000000000815260040161254f906137ac565b60405180910390fd5b612564600083836121d0565b6001600360008473ffffffffffffffffffffffffffffffffffffffff1673ffffffffffffffffffffffffffffffffffffffff16815260200190815260200160002060008282546125b49190613b60565b92505081905550816002600083815260200190815260200160002060006101000a81548173ffffffffffffffffffffffffffffffffffffffff021916908373ffffffffffffffffffffffffffffffffffffffff160217905550808273ffffffffffffffffffffffffffffffffffffffff16600073ffffffffffffffffffffffffffffffffffffffff167fddf252ad1be2c89b69c2b068fc378daa952ba7f163c4a11628f55a4df523b3ef60405160405180910390a45050565b612678838383612794565b600073ffffffffffffffffffffffffffffffffffffffff168373ffffffffffffffffffffffffffffffffffffffff1614156126bb576126b681612799565b6126fa565b8173ffffffffffffffffffffffffffffffffffffffff168373ffffffffffffffffffffffffffffffffffffffff16146126f9576126f883826127e2565b5b5b600073ffffffffffffffffffffffffffffffffffffffff168273ffffffffffffffffffffffffffffffffffffffff16141561273d576127388161294f565b61277c565b8273ffffffffffffffffffffffffffffffffffffffff168273ffffffffffffffffffffffffffffffffffffffff161461277b5761277a8282612a92565b5b5b505050565b600080823b905060008111915050919050565b505050565b6008805490506009600083815260200190815260200160002081905550600881908060018154018082558091505060019003906000526020600020016000909190919091505550565b600060016127ef84610b98565b6127f99190613c41565b90506000600760008481526020019081526020016000205490508181146128de576000600660008673ffffffffffffffffffffffffffffffffffffffff1673ffffffffffffffffffffffffffffffffffffffff168152602001908152602001600020600084815260200190815260200160002054905080600660008773ffffffffffffffffffffffffffffffffffffffff1673ffffffffffffffffffffffffffffffffffffffff168152602001908152602001600020600084815260200190815260200160002081905550816007600083815260200190815260200160002081905550505b6007600084815260200190815260200160002060009055600660008573ffffffffffffffffffffffffffffffffffffffff1673ffffffffffffffffffffffffffffffffffffffff16815260200190815260200160002060008381526020019081526020016000206000905550505050565b600060016008805490506129639190613c41565b90506000600960008481526020019081526020016000205490506000600883815481106129b9577f4e487b7100000000000000000000000000000000000000000000000000000000600052603260045260246000fd5b906000526020600020015490508060088381548110612a01577f4e487b7100000000000000000000000000000000000000000000000000000000600052603260045260246000fd5b906000526020600020018190555081600960008381526020019081526020016000208190555060096000858152602001908152602001600020600090556008805480612a76577f4e487b7100000000000000000000000000000000000000000000000000000000600052603160045260246000fd5b6001900381819060005260206000200160009055905550505050565b6000612a9d83610b98565b905081600660008573ffffffffffffffffffffffffffffffffffffffff1673ffffffffffffffffffffffffffffffffffffffff168152602001908152602001600020600083815260200190815260200160002081905550806007600084815260200190815260200160002081905550505050565b828054612b1d90613d2b565b90600052602060002090601f016020900481019282612b3f5760008555612b86565b82601f10612b5857805160ff1916838001178555612b86565b82800160010185558215612b86579182015b82811115612b85578251825591602001919060010190612b6a565b5b509050612b939190612b97565b5090565b5b80821115612bb0576000816000905550600101612b98565b5090565b6000612bc7612bc284613acc565b613aa7565b905082815260208101848484011115612bdf57600080fd5b612bea848285613ce9565b509392505050565b600081359050612c01816146c4565b92915050565b60008083601f840112612c1957600080fd5b8235905067ffffffffffffffff811115612c3257600080fd5b602083019150836020820283011115612c4a57600080fd5b9250929050565b600081359050612c60816146db565b92915050565b600081359050612c75816146f2565b92915050565b600081519050612c8a816146f2565b92915050565b600082601f830112612ca157600080fd5b8135612cb1848260208601612bb4565b91505092915050565b600081359050612cc981614709565b92915050565b600060208284031215612ce157600080fd5b6000612cef84828501612bf2565b91505092915050565b60008060408385031215612d0b57600080fd5b6000612d1985828601612bf2565b9250506020612d2a85828601612bf2565b9150509250929050565b600080600060608486031215612d4957600080fd5b6000612d5786828701612bf2565b9350506020612d6886828701612bf2565b9250506040612d7986828701612cba565b9150509250925092565b60008060008060808587031215612d9957600080fd5b6000612da787828801612bf2565b9450506020612db887828801612bf2565b9350506040612dc987828801612cba565b925050606085013567ffffffffffffffff811115612de657600080fd5b612df287828801612c90565b91505092959194509250565b60008060408385031215612e1157600080fd5b6000612e1f85828601612bf2565b9250506020612e3085828601612c51565b9150509250929050565b60008060408385031215612e4d57600080fd5b6000612e5b85828601612bf2565b9250506020612e6c85828601612cba565b9150509250929050565b600060208284031215612e8857600080fd5b6000612e9684828501612c51565b91505092915050565b600060208284031215612eb157600080fd5b6000612ebf84828501612c66565b91505092915050565b600060208284031215612eda57600080fd5b6000612ee884828501612c7b565b91505092915050565b600060208284031215612f0357600080fd5b6000612f1184828501612cba565b91505092915050565b600080600060408486031215612f2f57600080fd5b6000612f3d86828701612cba565b935050602084013567ffffffffffffffff811115612f5a57600080fd5b612f6686828701612c07565b92509250509250925092565b612f7b81613c75565b82525050565b612f8a81613c87565b82525050565b6000612f9b82613b12565b612fa58185613b28565b9350612fb5818560208601613cf8565b612fbe81613ec4565b840191505092915050565b6000612fd482613b12565b612fde8185613b39565b9350612fee818560208601613cf8565b80840191505092915050565b60006130068385613b55565b9350613013838584613ce9565b82840190509392505050565b600061302a82613b1d565b6130348185613b44565b9350613044818560208601613cf8565b61304d81613ec4565b840191505092915050565b600061306382613b1d565b61306d8185613b55565b935061307d818560208601613cf8565b80840191505092915050565b6000815461309681613d2b565b6130a08186613b55565b945060018216600081146130bb57600181146130cc576130ff565b60ff198316865281860193506130ff565b6130d585613afd565b60005b838110156130f7578154818901526001820191506020810190506130d8565b838801955050505b50505092915050565b6000613115602283613b55565b915061312082613ed5565b602282019050919050565b6000613138601283613b44565b915061314382613f24565b602082019050919050565b600061315b602b83613b44565b915061316682613f4d565b604082019050919050565b600061317e603283613b44565b915061318982613f9c565b604082019050919050565b60006131a1602683613b44565b91506131ac82613feb565b604082019050919050565b60006131c4601183613b55565b91506131cf8261403a565b601182019050919050565b60006131e7601c83613b44565b91506131f282614063565b602082019050919050565b600061320a600883613b55565b91506132158261408c565b600882019050919050565b600061322d602483613b44565b9150613238826140b5565b604082019050919050565b6000613250601983613b44565b915061325b82614104565b602082019050919050565b6000613273601883613b55565b915061327e8261412d565b601882019050919050565b6000613296602c83613b44565b91506132a182614156565b604082019050919050565b60006132b9600d83613b55565b91506132c4826141a5565b600d82019050919050565b60006132dc603883613b44565b91506132e7826141ce565b604082019050919050565b60006132ff602a83613b44565b915061330a8261421d565b604082019050919050565b6000613322602983613b44565b915061332d8261426c565b604082019050919050565b6000613345602e83613b44565b9150613350826142bb565b604082019050919050565b6000613368600283613b55565b91506133738261430a565b600282019050919050565b600061338b602083613b44565b915061339682614333565b602082019050919050565b60006133ae603183613b44565b91506133b98261435c565b604082019050919050565b60006133d1602c83613b44565b91506133dc826143ab565b604082019050919050565b60006133f4602083613b44565b91506133ff826143fa565b602082019050919050565b6000613417602983613b44565b915061342282614423565b604082019050919050565b600061343a602f83613b44565b915061344582614472565b604082019050919050565b600061345d604483613b55565b9150613468826144c1565b604482019050919050565b6000613480602183613b44565b915061348b82614536565b604082019050919050565b60006134a3601d83613b55565b91506134ae82614585565b601d82019050919050565b60006134c6603183613b44565b91506134d1826145ae565b604082019050919050565b60006134e9601683613b44565b91506134f4826145fd565b602082019050919050565b600061350c602c83613b44565b915061351782614626565b604082019050919050565b600061352f602683613b44565b915061353a82614675565b604082019050919050565b61354e81613cdf565b82525050565b60006135608285612fc9565b915061356c8284613058565b91506135778261335b565b91508190509392505050565b600061358f8285613058565b915061359b8284613058565b91508190509392505050565b60006135b38285613089565b91506135bf8284613058565b91506135ca826132ac565b91508190509392505050565b60006135e1826131b7565b91506135ed8284613058565b91506135f882613450565b915081905092915050565b600061360e82613266565b915061361b82888a612ffa565b915061362682613108565b9150613633828688612ffa565b915061363e82613108565b915061364b828486612ffa565b9150613656826131fd565b9150819050979650505050505050565b600061367182613496565b915061367d8284613058565b915081905092915050565b600060208201905061369d6000830184612f72565b92915050565b60006080820190506136b86000830187612f72565b6136c56020830186612f72565b6136d26040830185613545565b81810360608301526136e48184612f90565b905095945050505050565b60006020820190506137046000830184612f81565b92915050565b60006020820190508181036000830152613724818461301f565b905092915050565b600060208201905081810360008301526137458161312b565b9050919050565b600060208201905081810360008301526137658161314e565b9050919050565b6000602082019050818103600083015261378581613171565b9050919050565b600060208201905081810360008301526137a581613194565b9050919050565b600060208201905081810360008301526137c5816131da565b9050919050565b600060208201905081810360008301526137e581613220565b9050919050565b6000602082019050818103600083015261380581613243565b9050919050565b6000602082019050818103600083015261382581613289565b9050919050565b60006020820190508181036000830152613845816132cf565b9050919050565b60006020820190508181036000830152613865816132f2565b9050919050565b6000602082019050818103600083015261388581613315565b9050919050565b600060208201905081810360008301526138a581613338565b9050919050565b600060208201905081810360008301526138c58161337e565b9050919050565b600060208201905081810360008301526138e5816133a1565b9050919050565b60006020820190508181036000830152613905816133c4565b9050919050565b60006020820190508181036000830152613925816133e7565b9050919050565b600060208201905081810360008301526139458161340a565b9050919050565b600060208201905081810360008301526139658161342d565b9050919050565b6000602082019050818103600083015261398581613473565b9050919050565b600060208201905081810360008301526139a5816134b9565b9050919050565b600060208201905081810360008301526139c5816134dc565b9050919050565b600060208201905081810360008301526139e5816134ff565b9050919050565b60006020820190508181036000830152613a0581613522565b9050919050565b6000602082019050613a216000830184613545565b92915050565b6000604082019050613a3c6000830185613545565b613a496020830184613545565b9392505050565b60008083356001602003843603038112613a6957600080fd5b80840192508235915067ffffffffffffffff821115613a8757600080fd5b602083019250600182023603831315613a9f57600080fd5b509250929050565b6000613ab1613ac2565b9050613abd8282613d5d565b919050565b6000604051905090565b600067ffffffffffffffff821115613ae757613ae6613e95565b5b613af082613ec4565b9050602081019050919050565b60008190508160005260206000209050919050565b600081519050919050565b600081519050919050565b600082825260208201905092915050565b600081905092915050565b600082825260208201905092915050565b600081905092915050565b6000613b6b82613cdf565b9150613b7683613cdf565b9250827fffffffffffffffffffffffffffffffffffffffffffffffffffffffffffffffff03821115613bab57613baa613e08565b5b828201905092915050565b6000613bc182613cdf565b9150613bcc83613cdf565b925082613bdc57613bdb613e37565b5b828204905092915050565b6000613bf282613cdf565b9150613bfd83613cdf565b9250817fffffffffffffffffffffffffffffffffffffffffffffffffffffffffffffffff0483118215151615613c3657613c35613e08565b5b828202905092915050565b6000613c4c82613cdf565b9150613c5783613cdf565b925082821015613c6a57613c69613e08565b5b828203905092915050565b6000613c8082613cbf565b9050919050565b60008115159050919050565b60007fffffffff0000000000000000000000000000000000000000000000000000000082169050919050565b600073ffffffffffffffffffffffffffffffffffffffff82169050919050565b6000819050919050565b82818337600083830152505050565b60005b83811015613d16578082015181840152602081019050613cfb565b83811115613d25576000848401525b50505050565b60006002820490506001821680613d4357607f821691505b60208210811415613d5757613d56613e66565b5b50919050565b613d6682613ec4565b810181811067ffffffffffffffff82111715613d8557613d84613e95565b5b80604052505050565b6000613d9982613cdf565b91507fffffffffffffffffffffffffffffffffffffffffffffffffffffffffffffffff821415613dcc57613dcb613e08565b5b600182019050919050565b6000613de282613cdf565b9150613ded83613cdf565b925082613dfd57613dfc613e37565b5b828206905092915050565b7f4e487b7100000000000000000000000000000000000000000000000000000000600052601160045260246000fd5b7f4e487b7100000000000000000000000000000000000000000000000000000000600052601260045260246000fd5b7f4e487b7100000000000000000000000000000000000000000000000000000000600052602260045260246000fd5b7f4e487b7100000000000000000000000000000000000000000000000000000000600052604160045260246000fd5b6000601f19601f8301169050919050565b7f3c2f747370616e3e3c747370616e20783d22353025222064793d22312e31656d60008201527f223e000000000000000000000000000000000000000000000000000000000000602082015250565b7f6861696b7573206172652033206c696e65730000000000000000000000000000600082015250565b7f455243373231456e756d657261626c653a206f776e657220696e646578206f7560008201527f74206f6620626f756e6473000000000000000000000000000000000000000000602082015250565b7f4552433732313a207472616e7366657220746f206e6f6e20455243373231526560008201527f63656976657220696d706c656d656e7465720000000000000000000000000000602082015250565b7f4f776e61626c653a206e6577206f776e657220697320746865207a65726f206160008201527f6464726573730000000000000000000000000000000000000000000000000000602082015250565b7f7b226e616d65223a20224861696b752023000000000000000000000000000000600082015250565b7f4552433732313a20746f6b656e20616c7265616479206d696e74656400000000600082015250565b7f3c2f747370616e3e000000000000000000000000000000000000000000000000600082015250565b7f4552433732313a207472616e7366657220746f20746865207a65726f2061646460008201527f7265737300000000000000000000000000000000000000000000000000000000602082015250565b7f4552433732313a20617070726f766520746f2063616c6c657200000000000000600082015250565b7f3c747370616e20783d22353025222064793d2230656d223e0000000000000000600082015250565b7f4552433732313a206f70657261746f7220717565727920666f72206e6f6e657860008201527f697374656e7420746f6b656e0000000000000000000000000000000000000000602082015250565b7f3c2f746578743e3c2f7376673e00000000000000000000000000000000000000600082015250565b7f4552433732313a20617070726f76652063616c6c6572206973206e6f74206f7760008201527f6e6572206e6f7220617070726f76656420666f7220616c6c0000000000000000602082015250565b7f4552433732313a2062616c616e636520717565727920666f7220746865207a6560008201527f726f206164647265737300000000000000000000000000000000000000000000602082015250565b7f4552433732313a206f776e657220717565727920666f72206e6f6e657869737460008201527f656e7420746f6b656e0000000000000000000000000000000000000000000000602082015250565b7f45524337323155524953746f726167653a2055524920736574206f66206e6f6e60008201527f6578697374656e7420746f6b656e000000000000000000000000000000000000602082015250565b7f227d000000000000000000000000000000000000000000000000000000000000600082015250565b7f4552433732313a206d696e7420746f20746865207a65726f2061646472657373600082015250565b7f45524337323155524953746f726167653a2055524920717565727920666f722060008201527f6e6f6e6578697374656e7420746f6b656e000000000000000000000000000000602082015250565b7f4552433732313a20617070726f76656420717565727920666f72206e6f6e657860008201527f697374656e7420746f6b656e0000000000000000000000000000000000000000602082015250565b7f4f776e61626c653a2063616c6c6572206973206e6f7420746865206f776e6572600082015250565b7f4552433732313a207472616e73666572206f6620746f6b656e2074686174206960008201527f73206e6f74206f776e0000000000000000000000000000000000000000000000602082015250565b7f4552433732314d657461646174613a2055524920717565727920666f72206e6f60008201527f6e6578697374656e7420746f6b656e0000000000000000000000000000000000602082015250565b7f222c20226465736372697074696f6e223a2022596f7572206861696b75222c2060008201527f22696d616765223a2022646174613a696d6167652f7376672b786d6c3b62617360208201527f6536342c00000000000000000000000000000000000000000000000000000000604082015250565b7f4552433732313a20617070726f76616c20746f2063757272656e74206f776e6560008201527f7200000000000000000000000000000000000000000000000000000000000000602082015250565b7f646174613a6170706c69636174696f6e2f6a736f6e3b6261736536342c000000600082015250565b7f4552433732313a207472616e736665722063616c6c6572206973206e6f74206f60008201527f776e6572206e6f7220617070726f766564000000000000000000000000000000602082015250565b7f4861696b752073697a65206973206c696d697465642e00000000000000000000600082015250565b7f455243373231456e756d657261626c653a20676c6f62616c20696e646578206f60008201527f7574206f6620626f756e64730000000000000000000000000000000000000000602082015250565b7f596f752063616e27742065646974206120706f656d20796f7520646f6e27742060008201527f6f776e2e2e2e0000000000000000000000000000000000000000000000000000602082015250565b6146cd81613c75565b81146146d857600080fd5b50565b6146e481613c87565b81146146ef57600080fd5b50565b6146fb81613c93565b811461470657600080fd5b50565b61471281613cdf565b811461471d57600080fd5b5056fe3c747370616e20783d22353025222064793d2230656d223e736e6f7720636f617473207468652077696e646f773c2f747370616e3e3c747370616e20783d22353025222064793d22312e31656d223e666c616b657320626c6f77206163726f73732074686520726f6f66746f703c2f747370616e3e3c747370616e20783d22353025222064793d22312e31656d223e6f6820686f7720636f6c642069742069733c2f747370616e3e4142434445464748494a4b4c4d4e4f505152535455565758595a6162636465666768696a6b6c6d6e6f707172737475767778797a303132333435363738392b2fa2646970667358221220aa3dd5673711e144ac85e0f176a0136ad5e4384abeb8861b96c58177d55ac92e64736f6c634300080400333c73766720786d6c6e733d27687474703a2f2f7777772e77332e6f72672f323030302f73766727207072657365727665417370656374526174696f3d27784d696e594d696e206d656574272076696577426f783d273020302033353020333530273e3c7374796c653e2e62617365207b2066696c6c3a2077686974653b20666f6e742d66616d696c793a2073657269663b20666f6e742d73697a653a20323470783b207d3c2f7374796c653e3c726563742077696474683d273130302527206865696768743d2731303025272066696c6c3d272335353834396627202f3e3c7465787420783d273530252720793d273235252720636c6173733d27626173652720646f6d696e616e742d626173656c696e653d276d6964646c652720746578742d616e63686f723d276d6964646c65273e",
  "linkReferences": {},
  "deployedLinkReferences": {}
}